{
  "contractName": "Fish",
  "abi": [
    {
      "constant": true,
      "inputs": [],
      "name": "ThisFish",
      "outputs": [
        {
          "name": "Rarity",
          "type": "uint256"
        },
        {
          "name": "Weight",
          "type": "uint256"
        },
        {
          "name": "Owner",
          "type": "address"
        },
        {
          "name": "Price",
          "type": "uint256"
        }
      ],
      "payable": false,
      "stateMutability": "view",
      "type": "function"
    },
    {
      "inputs": [
        {
          "name": "_owner",
          "type": "address"
        },
        {
          "name": "_fishRodLevel",
          "type": "uint256"
        }
      ],
      "payable": false,
      "stateMutability": "nonpayable",
      "type": "constructor"
    },
    {
      "constant": true,
      "inputs": [],
      "name": "Rarity",
      "outputs": [
        {
          "name": "",
          "type": "uint256"
        }
      ],
      "payable": false,
      "stateMutability": "view",
      "type": "function"
    },
    {
      "constant": true,
      "inputs": [
        {
          "name": "_fishRodLevel",
          "type": "uint256"
        }
      ],
      "name": "Weight",
      "outputs": [
        {
          "name": "",
          "type": "uint256"
        }
      ],
      "payable": false,
      "stateMutability": "view",
      "type": "function"
    },
    {
      "constant": true,
      "inputs": [
        {
          "name": "_weight",
          "type": "uint256"
        },
        {
          "name": "_rarity",
          "type": "uint256"
        }
      ],
      "name": "Price",
      "outputs": [
        {
          "name": "",
          "type": "uint256"
        }
      ],
      "payable": false,
      "stateMutability": "pure",
      "type": "function"
    },
    {
      "constant": true,
      "inputs": [],
      "name": "GetDetails",
      "outputs": [
        {
          "name": "",
          "type": "uint256"
        },
        {
          "name": "",
          "type": "uint256"
        },
        {
          "name": "",
          "type": "uint256"
        }
      ],
      "payable": false,
      "stateMutability": "view",
      "type": "function"
    }
  ],
  "bytecode": "0x608060405234801561001057600080fd5b506040516040806108e88339810180604052604081101561003057600080fd5b81019080805190602001909291908051906020019092919050505081600060020160006101000a81548173ffffffffffffffffffffffffffffffffffffffff021916908373ffffffffffffffffffffffffffffffffffffffff1602179055506100a6610101640100000000026401000000009004565b60008001819055506100c681610176640100000000026401000000009004565b6000600101819055506100f160006001015460008001546101c4640100000000026401000000009004565b60006003018190555050506103d3565b600080610129606442444501016101ee640100000000026102f5179091906401000000009004565b14156101385760039050610173565b600061015f600a42444501016101ee640100000000026102f5179091906401000000009004565b141561016e5760029050610173565b600190505b90565b60006101bd6101a160016003850203426101ee640100000000026102f5179091906401000000009004565b8361027c64010000000002610383179091906401000000009004565b9050919050565b60006101e682846103066401000000000261040d179091906401000000009004565b905092915050565b6000808214151515610268576040517f08c379a00000000000000000000000000000000000000000000000000000000081526004018080602001828103825260188152602001807f536166654d6174683a206d6f64756c6f206279207a65726f000000000000000081525060200191505060405180910390fd5b818381151561027357fe5b06905092915050565b60008082840190508381101515156102fc576040517f08c379a000000000000000000000000000000000000000000000000000000000815260040180806020018281038252601b8152602001807f536166654d6174683a206164646974696f6e206f766572666c6f77000000000081525060200191505060405180910390fd5b8091505092915050565b60008083141561031957600090506103cd565b6000828402905082848281151561032c57fe5b041415156103c8576040517f08c379a00000000000000000000000000000000000000000000000000000000081526004018080602001828103825260218152602001807f536166654d6174683a206d756c7469706c69636174696f6e206f766572666c6f81526020017f770000000000000000000000000000000000000000000000000000000000000081525060400191505060405180910390fd5b809150505b92915050565b610506806103e26000396000f3fe60806040526004361061006d576000357c0100000000000000000000000000000000000000000000000000000000900463ffffffff16806344c57bc6146100725780636ff8ec36146100de578063b4f6f5091461012d578063cc2e8cca14610158578063d1353c6814610191575b600080fd5b34801561007e57600080fd5b506100876101ea565b604051808581526020018481526020018373ffffffffffffffffffffffffffffffffffffffff1673ffffffffffffffffffffffffffffffffffffffff16815260200182815260200194505050505060405180910390f35b3480156100ea57600080fd5b506101176004803603602081101561010157600080fd5b8101908080359060200190929190505050610228565b6040518082815260200191505060405180910390f35b34801561013957600080fd5b5061014261025c565b6040518082815260200191505060405180910390f35b34801561016457600080fd5b5061016d6102b7565b60405180848152602001838152602001828152602001935050505060405180910390f35b34801561019d57600080fd5b506101d4600480360360408110156101b457600080fd5b8101908080359060200190929190803590602001909291905050506102d8565b6040518082815260200191505060405180910390f35b60008060000154908060010154908060020160009054906101000a900473ffffffffffffffffffffffffffffffffffffffff16908060030154905084565b600061025561024660016003850203426102f590919063ffffffff16565b8361038390919063ffffffff16565b9050919050565b600080610277606442444501016102f590919063ffffffff16565b141561028657600390506102b4565b60006102a0600a42444501016102f590919063ffffffff16565b14156102af57600290506102b4565b600190505b90565b60008060008060000154600060010154600060030154925092509250909192565b60006102ed828461040d90919063ffffffff16565b905092915050565b600080821415151561036f576040517f08c379a00000000000000000000000000000000000000000000000000000000081526004018080602001828103825260188152602001807f536166654d6174683a206d6f64756c6f206279207a65726f000000000000000081525060200191505060405180910390fd5b818381151561037a57fe5b06905092915050565b6000808284019050838110151515610403576040517f08c379a000000000000000000000000000000000000000000000000000000000815260040180806020018281038252601b8152602001807f536166654d6174683a206164646974696f6e206f766572666c6f77000000000081525060200191505060405180910390fd5b8091505092915050565b60008083141561042057600090506104d4565b6000828402905082848281151561043357fe5b041415156104cf576040517f08c379a00000000000000000000000000000000000000000000000000000000081526004018080602001828103825260218152602001807f536166654d6174683a206d756c7469706c69636174696f6e206f766572666c6f81526020017f770000000000000000000000000000000000000000000000000000000000000081525060400191505060405180910390fd5b809150505b9291505056fea165627a7a72305820cf4c70f9bfddd86c967958b39d2524de300d29faf909f295e0fe1eafca5a132e0029",
  "source": "pragma solidity ^0.5.0;\n\nimport './SafeMath.sol';\n\ncontract Fish  {\n    using SafeMath for uint256;\n\n    struct FishModel  {\n        uint256 Rarity;\n        uint256 Weight;\n        address Owner;\n        uint256 Price;\n    }\n    FishModel public ThisFish;\n    // mapping (address=>FishModel) ThisFish;\n    constructor(address _owner,uint256 _fishRodLevel) public   {\n        ThisFish.Owner = _owner;\n        ThisFish.Rarity = Rarity();\n        ThisFish.Weight = Weight(_fishRodLevel);\n        ThisFish.Price = Price(ThisFish.Weight,ThisFish.Rarity);\n    }\n\n    function Rarity() public view returns(uint256)  {\n        if ((block.gaslimit+block.difficulty+now).mod(100)==0){\n            return 3;\n        }\n        if ((block.gaslimit+block.difficulty+now).mod(10)==0){\n            return 2;\n        } else{\n            return 1;\n        }\n    }\n    function Weight(uint256 _fishRodLevel) public view returns(uint256)  {\n        return _fishRodLevel.add(now.mod((_fishRodLevel*3)-1));\n    }\n    function Price( uint256 _weight, uint256 _rarity) public pure returns(uint256) {\n        return _weight.mul(_rarity);\n    }\n    function GetDetails() public view returns(uint256,uint256,uint256){\n        return(ThisFish.Rarity,ThisFish.Weight,ThisFish.Price);\n    }\n\n    }",
  "sourcePath": "/home/denny/Projects/FishingFrenzy/truffle/contracts/Fish.sol",
  "compiler": {
    "name": "solc",
    "version": "0.5.0+commit.1d4f565a.Emscripten.clang"
  },
  "schemaVersion": "3.0.13",
  "updatedAt": "2019-09-01T19:55:28.189Z",
  "devdoc": {
    "methods": {}
  },
  "userdoc": {
    "methods": {}
  }
}