{
  "contractName": "FrenzyFish",
  "abi": [
    {
      "constant": false,
      "inputs": [
        {
          "name": "_fish",
          "type": "address"
        },
        {
          "name": "_orderPosition",
          "type": "uint256"
        }
      ],
      "name": "BuyFish",
      "outputs": [
        {
          "name": "",
          "type": "bool"
        }
      ],
      "payable": false,
      "stateMutability": "nonpayable",
      "type": "function"
    },
    {
      "constant": true,
      "inputs": [],
      "name": "GetRodDetails",
      "outputs": [
        {
          "name": "_level",
          "type": "uint256"
        },
        {
          "name": "_power",
          "type": "uint256"
        },
        {
          "name": "_price",
          "type": "uint256"
        }
      ],
      "payable": false,
      "stateMutability": "view",
      "type": "function"
    },
    {
      "constant": true,
      "inputs": [],
      "name": "ListMarketOrders",
      "outputs": [
        {
          "name": "",
          "type": "address[]"
        },
        {
          "name": "",
          "type": "address[]"
        },
        {
          "name": "",
          "type": "uint256[]"
        },
        {
          "name": "",
          "type": "bool[]"
        }
      ],
      "payable": false,
      "stateMutability": "view",
      "type": "function"
    },
    {
      "constant": false,
      "inputs": [],
      "name": "UpgradeFishRod",
      "outputs": [],
      "payable": false,
      "stateMutability": "nonpayable",
      "type": "function"
    },
    {
      "constant": false,
      "inputs": [
        {
          "name": "_fish",
          "type": "address"
        },
        {
          "name": "_orderPosition",
          "type": "uint256"
        }
      ],
      "name": "CancelSellFishOrder",
      "outputs": [
        {
          "name": "",
          "type": "bool"
        }
      ],
      "payable": false,
      "stateMutability": "nonpayable",
      "type": "function"
    },
    {
      "constant": true,
      "inputs": [
        {
          "name": "",
          "type": "address"
        }
      ],
      "name": "UsersRod",
      "outputs": [
        {
          "name": "Level",
          "type": "uint256"
        },
        {
          "name": "Power",
          "type": "uint256"
        },
        {
          "name": "CurrentPrice",
          "type": "uint256"
        },
        {
          "name": "NextPrice",
          "type": "uint256"
        }
      ],
      "payable": false,
      "stateMutability": "view",
      "type": "function"
    },
    {
      "constant": false,
      "inputs": [],
      "name": "FirstUserInitialRod",
      "outputs": [
        {
          "name": "",
          "type": "bool"
        }
      ],
      "payable": false,
      "stateMutability": "nonpayable",
      "type": "function"
    },
    {
      "constant": false,
      "inputs": [
        {
          "name": "_fish",
          "type": "address"
        },
        {
          "name": "position",
          "type": "uint256"
        }
      ],
      "name": "SellFish",
      "outputs": [
        {
          "name": "",
          "type": "bool"
        }
      ],
      "payable": false,
      "stateMutability": "nonpayable",
      "type": "function"
    },
    {
      "constant": true,
      "inputs": [
        {
          "name": "",
          "type": "uint256"
        }
      ],
      "name": "SellOrders",
      "outputs": [
        {
          "name": "SellFish",
          "type": "address"
        },
        {
          "name": "Seller",
          "type": "address"
        },
        {
          "name": "OwnerFishPosition",
          "type": "uint256"
        },
        {
          "name": "IsFilled",
          "type": "bool"
        }
      ],
      "payable": false,
      "stateMutability": "view",
      "type": "function"
    },
    {
      "constant": true,
      "inputs": [
        {
          "name": "",
          "type": "address"
        },
        {
          "name": "",
          "type": "uint256"
        }
      ],
      "name": "Fishes",
      "outputs": [
        {
          "name": "",
          "type": "address"
        }
      ],
      "payable": false,
      "stateMutability": "view",
      "type": "function"
    },
    {
      "inputs": [],
      "payable": false,
      "stateMutability": "nonpayable",
      "type": "constructor"
    },
    {
      "constant": false,
      "inputs": [],
      "name": "Fishing",
      "outputs": [],
      "payable": false,
      "stateMutability": "nonpayable",
      "type": "function"
    },
    {
      "constant": true,
      "inputs": [],
      "name": "ListAllFishes",
      "outputs": [
        {
          "name": "",
          "type": "address[]"
        }
      ],
      "payable": false,
      "stateMutability": "view",
      "type": "function"
    },
    {
      "constant": true,
      "inputs": [
        {
          "name": "fish",
          "type": "address"
        }
      ],
      "name": "GetFishDetails",
      "outputs": [
        {
          "name": "_rarity",
          "type": "uint256"
        },
        {
          "name": "_weight",
          "type": "uint256"
        },
        {
          "name": "_price",
          "type": "uint256"
        },
        {
          "name": "_onOrder",
          "type": "bool"
        }
      ],
      "payable": false,
      "stateMutability": "view",
      "type": "function"
    }
  ],
  "bytecode": "0x608060405234801561001057600080fd5b50612e09806100206000396000f3fe608060405260043610620000d3576000357c0100000000000000000000000000000000000000000000000000000000900463ffffffff1680630ac1449014620000d85780630b5d5b54146200014f578063267dbaa3146200018b57806328347b6c14620002da5780636765bc16146200034b57806392a8a78914620003655780639aa0d925146200037f5780639e96c3ad14620003f6578063a089dcde1462000478578063a5e12aef14620004f6578063a6149f091462000528578063cb5eeae7146200059f578063ce4f8d411462000663575b600080fd5b348015620000e557600080fd5b506200013560048036036040811015620000fe57600080fd5b81019080803573ffffffffffffffffffffffffffffffffffffffff1690602001909291908035906020019092919050505062000702565b604051808215151515815260200191505060405180910390f35b3480156200015c57600080fd5b506200016762000d28565b60405180848152602001838152602001828152602001935050505060405180910390f35b3480156200019857600080fd5b50620001a362000dfe565b6040518080602001806020018060200180602001858103855289818151815260200191508051906020019060200280838360005b83811015620001f4578082015181840152602081019050620001d7565b50505050905001858103845288818151815260200191508051906020019060200280838360005b83811015620002385780820151818401526020810190506200021b565b50505050905001858103835287818151815260200191508051906020019060200280838360005b838110156200027c5780820151818401526020810190506200025f565b50505050905001858103825286818151815260200191508051906020019060200280838360005b83811015620002c0578082015181840152602081019050620002a3565b505050509050019850505050505050505060405180910390f35b348015620002e757600080fd5b50620002f2620010c7565b6040518080602001828103825283818151815260200191508051906020019060200280838360005b83811015620003375780820151818401526020810190506200031a565b505050509050019250505060405180910390f35b3480156200035857600080fd5b506200036362001194565b005b3480156200037257600080fd5b506200037d620012e6565b005b3480156200038c57600080fd5b50620003dc60048036036040811015620003a557600080fd5b81019080803573ffffffffffffffffffffffffffffffffffffffff16906020019092919080359060200190929190505050620015d8565b604051808215151515815260200191505060405180910390f35b3480156200040357600080fd5b5062000449600480360360208110156200041c57600080fd5b81019080803573ffffffffffffffffffffffffffffffffffffffff16906020019092919050505062001a48565b604051808581526020018481526020018381526020018215151515815260200194505050505060405180910390f35b3480156200048557600080fd5b50620004cb600480360360208110156200049e57600080fd5b81019080803573ffffffffffffffffffffffffffffffffffffffff16906020019092919050505062001b1b565b6040518085815260200184815260200183815260200182815260200194505050505060405180910390f35b3480156200050357600080fd5b506200050e62001b4b565b604051808215151515815260200191505060405180910390f35b3480156200053557600080fd5b5062000585600480360360408110156200054e57600080fd5b81019080803573ffffffffffffffffffffffffffffffffffffffff1690602001909291908035906020019092919050505062001cc6565b604051808215151515815260200191505060405180910390f35b348015620005ac57600080fd5b50620005dc60048036036020811015620005c557600080fd5b810190808035906020019092919050505062002128565b604051808573ffffffffffffffffffffffffffffffffffffffff1673ffffffffffffffffffffffffffffffffffffffff1681526020018473ffffffffffffffffffffffffffffffffffffffff1673ffffffffffffffffffffffffffffffffffffffff1681526020018381526020018215151515815260200194505050505060405180910390f35b3480156200067057600080fd5b50620006c0600480360360408110156200068957600080fd5b81019080803573ffffffffffffffffffffffffffffffffffffffff16906020019092919080359060200190929190505050620021b5565b604051808273ffffffffffffffffffffffffffffffffffffffff1673ffffffffffffffffffffffffffffffffffffffff16815260200191505060405180910390f35b60008273ffffffffffffffffffffffffffffffffffffffff166001838154811015156200072b57fe5b906000526020600020906004020160000160009054906101000a900473ffffffffffffffffffffffffffffffffffffffff1673ffffffffffffffffffffffffffffffffffffffff16148015620008245750600115158373ffffffffffffffffffffffffffffffffffffffff166313c23f416040518163ffffffff167c010000000000000000000000000000000000000000000000000000000002815260040160206040518083038186803b158015620007e357600080fd5b505afa158015620007f8573d6000803e3d6000fd5b505050506040513d60208110156200080f57600080fd5b81019080805190602001909291905050501515145b151562000899576040517f08c379a00000000000000000000000000000000000000000000000000000000081526004018080602001828103825260108152602001807f4e6f7420696e204f726465724c6973740000000000000000000000000000000081525060200191505060405180910390fd5b3373ffffffffffffffffffffffffffffffffffffffff16600183815481101515620008c057fe5b906000526020600020906004020160010160009054906101000a900473ffffffffffffffffffffffffffffffffffffffff1673ffffffffffffffffffffffffffffffffffffffff16141515156200097f576040517f08c379a000000000000000000000000000000000000000000000000000000000815260040180806020018281038252600f8152602001807f4f776e65722043616e277420427579000000000000000000000000000000000081525060200191505060405180910390fd5b600015156001838154811015156200099357fe5b906000526020600020906004020160030160009054906101000a900460ff16151514151562000a2a576040517f08c379a00000000000000000000000000000000000000000000000000000000081526004018080602001828103825260148152602001807f4f7264657220416c72656164792046696c6c656400000000000000000000000081525060200191505060405180910390fd5b8273ffffffffffffffffffffffffffffffffffffffff1663f853f657336040518263ffffffff167c0100000000000000000000000000000000000000000000000000000000028152600401808273ffffffffffffffffffffffffffffffffffffffff1673ffffffffffffffffffffffffffffffffffffffff168152602001915050602060405180830381600087803b15801562000ac657600080fd5b505af115801562000adb573d6000803e3d6000fd5b505050506040513d602081101562000af257600080fd5b81019080805190602001909291905050501562000d1d57600260003373ffffffffffffffffffffffffffffffffffffffff1673ffffffffffffffffffffffffffffffffffffffff1681526020019081526020016000208390806001815401808255809150509060018203906000526020600020016000909192909190916101000a81548173ffffffffffffffffffffffffffffffffffffffff021916908373ffffffffffffffffffffffffffffffffffffffff160217905550506002600060018481548110151562000bc057fe5b906000526020600020906004020160010160009054906101000a900473ffffffffffffffffffffffffffffffffffffffff1673ffffffffffffffffffffffffffffffffffffffff1673ffffffffffffffffffffffffffffffffffffffff16815260200190815260200160002060018381548110151562000c3c57fe5b90600052602060002090600402016002015481548110151562000c5b57fe5b9060005260206000200160006101000a81549073ffffffffffffffffffffffffffffffffffffffff021916905560018281548110151562000c9857fe5b9060005260206000209060040201600080820160006101000a81549073ffffffffffffffffffffffffffffffffffffffff02191690556001820160006101000a81549073ffffffffffffffffffffffffffffffffffffffff021916905560028201600090556003820160006101000a81549060ff021916905550506001905062000d22565b600090505b92915050565b60008060008060003373ffffffffffffffffffffffffffffffffffffffff1673ffffffffffffffffffffffffffffffffffffffff168152602001908152602001600020600001546000803373ffffffffffffffffffffffffffffffffffffffff1673ffffffffffffffffffffffffffffffffffffffff168152602001908152602001600020600101546000803373ffffffffffffffffffffffffffffffffffffffff1673ffffffffffffffffffffffffffffffffffffffff16815260200190815260200160002060030154925092509250909192565b6060806060806000600180549050905060608160405190808252806020026020018201604052801562000e405781602001602082028038833980820191505090505b50905060608260405190808252806020026020018201604052801562000e755781602001602082028038833980820191505090505b50905060608360405190808252806020026020018201604052801562000eaa5781602001602082028038833980820191505090505b50905060608460405190808252806020026020018201604052801562000edf5781602001602082028038833980820191505090505b50905060008090505b600180549050811015620010af5760018181548110151562000f0657fe5b906000526020600020906004020160000160009054906101000a900473ffffffffffffffffffffffffffffffffffffffff16858281518110151562000f4757fe5b9060200190602002019073ffffffffffffffffffffffffffffffffffffffff16908173ffffffffffffffffffffffffffffffffffffffff168152505060018181548110151562000f9357fe5b906000526020600020906004020160010160009054906101000a900473ffffffffffffffffffffffffffffffffffffffff16848281518110151562000fd457fe5b9060200190602002019073ffffffffffffffffffffffffffffffffffffffff16908173ffffffffffffffffffffffffffffffffffffffff16815250506001818154811015156200102057fe5b90600052602060002090600402016002015483828151811015156200104157fe5b90602001906020020181815250506001818154811015156200105f57fe5b906000526020600020906004020160030160009054906101000a900460ff1682828151811015156200108d57fe5b9060200190602002019015159081151581525050808060010191505062000ee8565b50838383839850985098509850505050505090919293565b6060600260003373ffffffffffffffffffffffffffffffffffffffff1673ffffffffffffffffffffffffffffffffffffffff1681526020019081526020016000208054806020026020016040519081016040528092919081815260200182805480156200118a57602002820191906000526020600020905b8160009054906101000a900473ffffffffffffffffffffffffffffffffffffffff1673ffffffffffffffffffffffffffffffffffffffff16815260200190600101908083116200113f575b5050505050905090565b6000336000803373ffffffffffffffffffffffffffffffffffffffff1673ffffffffffffffffffffffffffffffffffffffff16815260200190815260200160002060000154620011e36200228e565b808373ffffffffffffffffffffffffffffffffffffffff1673ffffffffffffffffffffffffffffffffffffffff16815260200182815260200192505050604051809103906000f0801580156200123d573d6000803e3d6000fd5b509050600260003373ffffffffffffffffffffffffffffffffffffffff1673ffffffffffffffffffffffffffffffffffffffff1681526020019081526020016000208190806001815401808255809150509060018203906000526020600020016000909192909190916101000a81548173ffffffffffffffffffffffffffffffffffffffff021916908373ffffffffffffffffffffffffffffffffffffffff1602179055505050565b60008060003373ffffffffffffffffffffffffffffffffffffffff1673ffffffffffffffffffffffffffffffffffffffff16815260200190815260200160002060000154141515156200133557fe5b60008060003373ffffffffffffffffffffffffffffffffffffffff1673ffffffffffffffffffffffffffffffffffffffff168152602001908152602001600020600301549050620013d260016000803373ffffffffffffffffffffffffffffffffffffffff1673ffffffffffffffffffffffffffffffffffffffff168152602001908152602001600020600001546200220390919063ffffffff16565b6000803373ffffffffffffffffffffffffffffffffffffffff1673ffffffffffffffffffffffffffffffffffffffff168152602001908152602001600020600001819055506200146e60026000803373ffffffffffffffffffffffffffffffffffffffff1673ffffffffffffffffffffffffffffffffffffffff168152602001908152602001600020600101546200220390919063ffffffff16565b6000803373ffffffffffffffffffffffffffffffffffffffff1673ffffffffffffffffffffffffffffffffffffffff168152602001908152602001600020600101819055506200154a6000803373ffffffffffffffffffffffffffffffffffffffff1673ffffffffffffffffffffffffffffffffffffffff168152602001908152602001600020600201546000803373ffffffffffffffffffffffffffffffffffffffff1673ffffffffffffffffffffffffffffffffffffffff168152602001908152602001600020600301546200220390919063ffffffff16565b6000803373ffffffffffffffffffffffffffffffffffffffff1673ffffffffffffffffffffffffffffffffffffffff16815260200190815260200160002060030181905550806000803373ffffffffffffffffffffffffffffffffffffffff1673ffffffffffffffffffffffffffffffffffffffff1681526020019081526020016000206002018190555050565b60008273ffffffffffffffffffffffffffffffffffffffff166001838154811015156200160157fe5b906000526020600020906004020160000160009054906101000a900473ffffffffffffffffffffffffffffffffffffffff1673ffffffffffffffffffffffffffffffffffffffff16148015620016fa5750600115158373ffffffffffffffffffffffffffffffffffffffff166313c23f416040518163ffffffff167c010000000000000000000000000000000000000000000000000000000002815260040160206040518083038186803b158015620016b957600080fd5b505afa158015620016ce573d6000803e3d6000fd5b505050506040513d6020811015620016e557600080fd5b81019080805190602001909291905050501515145b15156200176f576040517f08c379a00000000000000000000000000000000000000000000000000000000081526004018080602001828103825260108152602001807f4e6f7420696e204f726465724c6973740000000000000000000000000000000081525060200191505060405180910390fd5b600015156001838154811015156200178357fe5b906000526020600020906004020160030160009054906101000a900460ff1615151415156200181a576040517f08c379a00000000000000000000000000000000000000000000000000000000081526004018080602001828103825260148152602001807f4f7264657220416c72656164792046696c6c656400000000000000000000000081525060200191505060405180910390fd5b3373ffffffffffffffffffffffffffffffffffffffff166001838154811015156200184157fe5b906000526020600020906004020160010160009054906101000a900473ffffffffffffffffffffffffffffffffffffffff1673ffffffffffffffffffffffffffffffffffffffff16141515620018ff576040517f08c379a00000000000000000000000000000000000000000000000000000000081526004018080602001828103825260168152602001807f55736572206973206e6f742046697368206f776e65720000000000000000000081525060200191505060405180910390fd5b8273ffffffffffffffffffffffffffffffffffffffff1663be889f4b6040518163ffffffff167c0100000000000000000000000000000000000000000000000000000000028152600401602060405180830381600087803b1580156200196457600080fd5b505af115801562001979573d6000803e3d6000fd5b505050506040513d60208110156200199057600080fd5b8101908080519060200190929190505050151562001a3d57600182815481101515620019b857fe5b9060005260206000209060040201600080820160006101000a81549073ffffffffffffffffffffffffffffffffffffffff02191690556001820160006101000a81549073ffffffffffffffffffffffffffffffffffffffff021916905560028201600090556003820160006101000a81549060ff021916905550506001905062001a42565b600090505b92915050565b6000806000808473ffffffffffffffffffffffffffffffffffffffff1663cc2e8cca6040518163ffffffff167c010000000000000000000000000000000000000000000000000000000002815260040160806040518083038186803b15801562001ab157600080fd5b505afa15801562001ac6573d6000803e3d6000fd5b505050506040513d608081101562001add57600080fd5b810190808051906020019092919080519060200190929190805190602001909291908051906020019092919050505093509350935093509193509193565b60006020528060005260406000206000915090508060000154908060010154908060020154908060030154905084565b6000806000803373ffffffffffffffffffffffffffffffffffffffff1673ffffffffffffffffffffffffffffffffffffffff16815260200190815260200160002060000154141562001cbe5760016000803373ffffffffffffffffffffffffffffffffffffffff1673ffffffffffffffffffffffffffffffffffffffff1681526020019081526020016000206000018190555060036000803373ffffffffffffffffffffffffffffffffffffffff1673ffffffffffffffffffffffffffffffffffffffff1681526020019081526020016000206001018190555060ff6000803373ffffffffffffffffffffffffffffffffffffffff1673ffffffffffffffffffffffffffffffffffffffff168152602001908152602001600020600201819055506101816000803373ffffffffffffffffffffffffffffffffffffffff1673ffffffffffffffffffffffffffffffffffffffff168152602001908152602001600020600301819055506001905062001cc3565b600090505b90565b60008273ffffffffffffffffffffffffffffffffffffffff16600260003373ffffffffffffffffffffffffffffffffffffffff1673ffffffffffffffffffffffffffffffffffffffff1681526020019081526020016000208381548110151562001d2c57fe5b9060005260206000200160009054906101000a900473ffffffffffffffffffffffffffffffffffffffff1673ffffffffffffffffffffffffffffffffffffffff1614151562001de3576040517f08c379a00000000000000000000000000000000000000000000000000000000081526004018080602001828103825260168152602001807f55736572206973206e6f742046697368206f776e65720000000000000000000081525060200191505060405180910390fd5b600015158373ffffffffffffffffffffffffffffffffffffffff166313c23f416040518163ffffffff167c010000000000000000000000000000000000000000000000000000000002815260040160206040518083038186803b15801562001e4a57600080fd5b505afa15801562001e5f573d6000803e3d6000fd5b505050506040513d602081101562001e7657600080fd5b8101908080519060200190929190505050151514151562001eff576040517f08c379a00000000000000000000000000000000000000000000000000000000081526004018080602001828103825260108152602001807f416c726561647920696e204f726465720000000000000000000000000000000081525060200191505060405180910390fd5b62001f096200229f565b83816000019073ffffffffffffffffffffffffffffffffffffffff16908173ffffffffffffffffffffffffffffffffffffffff168152505033816020019073ffffffffffffffffffffffffffffffffffffffff16908173ffffffffffffffffffffffffffffffffffffffff16815250508281604001818152505060008160600190151590811515815250506001819080600181540180825580915050906001820390600052602060002090600402016000909192909190915060008201518160000160006101000a81548173ffffffffffffffffffffffffffffffffffffffff021916908373ffffffffffffffffffffffffffffffffffffffff16021790555060208201518160010160006101000a81548173ffffffffffffffffffffffffffffffffffffffff021916908373ffffffffffffffffffffffffffffffffffffffff1602179055506040820151816002015560608201518160030160006101000a81548160ff0219169083151502179055505050508373ffffffffffffffffffffffffffffffffffffffff1663be889f4b6040518163ffffffff167c0100000000000000000000000000000000000000000000000000000000028152600401602060405180830381600087803b158015620020e257600080fd5b505af1158015620020f7573d6000803e3d6000fd5b505050506040513d60208110156200210e57600080fd5b810190808051906020019092919050505091505092915050565b6001818154811015156200213857fe5b90600052602060002090600402016000915090508060000160009054906101000a900473ffffffffffffffffffffffffffffffffffffffff16908060010160009054906101000a900473ffffffffffffffffffffffffffffffffffffffff16908060020154908060030160009054906101000a900460ff16905084565b600260205281600052604060002081815481101515620021d157fe5b906000526020600020016000915091509054906101000a900473ffffffffffffffffffffffffffffffffffffffff1681565b600080828401905083811015151562002284576040517f08c379a000000000000000000000000000000000000000000000000000000000815260040180806020018281038252601b8152602001807f536166654d6174683a206164646974696f6e206f766572666c6f77000000000081525060200191505060405180910390fd5b8091505092915050565b604051610ae780620022f783390190565b608060405190810160405280600073ffffffffffffffffffffffffffffffffffffffff168152602001600073ffffffffffffffffffffffffffffffffffffffff16815260200160008152602001600015158152509056fe608060405234801561001057600080fd5b50604051604080610ae78339810180604052604081101561003057600080fd5b81019080805190602001909291908051906020019092919050505081600060020160006101000a81548173ffffffffffffffffffffffffffffffffffffffff021916908373ffffffffffffffffffffffffffffffffffffffff1602179055506100a661011e640100000000026401000000009004565b60008001819055506100c681610193640100000000026401000000009004565b6000600101819055506100f160006001015460008001546101e1640100000000026401000000009004565b60006003018190555060008060040160006101000a81548160ff02191690831515021790555050506103f0565b6000806101466064424445010161020b640100000000026104d7179091906401000000009004565b14156101555760039050610190565b600061017c600a424445010161020b640100000000026104d7179091906401000000009004565b141561018b5760029050610190565b600190505b90565b60006101da6101be600160038502034261020b640100000000026104d7179091906401000000009004565b8361029964010000000002610565179091906401000000009004565b9050919050565b60006102038284610323640100000000026105ef179091906401000000009004565b905092915050565b6000808214151515610285576040517f08c379a00000000000000000000000000000000000000000000000000000000081526004018080602001828103825260188152602001807f536166654d6174683a206d6f64756c6f206279207a65726f000000000000000081525060200191505060405180910390fd5b818381151561029057fe5b06905092915050565b6000808284019050838110151515610319576040517f08c379a000000000000000000000000000000000000000000000000000000000815260040180806020018281038252601b8152602001807f536166654d6174683a206164646974696f6e206f766572666c6f77000000000081525060200191505060405180910390fd5b8091505092915050565b60008083141561033657600090506103ea565b6000828402905082848281151561034957fe5b041415156103e5576040517f08c379a00000000000000000000000000000000000000000000000000000000081526004018080602001828103825260218152602001807f536166654d6174683a206d756c7469706c69636174696f6e206f766572666c6f81526020017f770000000000000000000000000000000000000000000000000000000000000081525060400191505060405180910390fd5b809150505b92915050565b6106e8806103ff6000396000f3fe60806040526004361061008e576000357c0100000000000000000000000000000000000000000000000000000000900463ffffffff16806313c23f411461009357806344c57bc6146100c25780636ff8ec3614610139578063b4f6f50914610188578063be889f4b146101b3578063cc2e8cca146101e2578063d1353c6814610226578063f853f6571461027f575b600080fd5b34801561009f57600080fd5b506100a86102e8565b604051808215151515815260200191505060405180910390f35b3480156100ce57600080fd5b506100d7610301565b604051808681526020018581526020018473ffffffffffffffffffffffffffffffffffffffff1673ffffffffffffffffffffffffffffffffffffffff168152602001838152602001821515151581526020019550505050505060405180910390f35b34801561014557600080fd5b506101726004803603602081101561015c57600080fd5b8101908080359060200190929190505050610352565b6040518082815260200191505060405180910390f35b34801561019457600080fd5b5061019d610386565b6040518082815260200191505060405180910390f35b3480156101bf57600080fd5b506101c86103e1565b604051808215151515815260200191505060405180910390f35b3480156101ee57600080fd5b506101f761042a565b604051808581526020018481526020018381526020018215151515815260200194505050505060405180910390f35b34801561023257600080fd5b506102696004803603604081101561024957600080fd5b810190808035906020019092919080359060200190929190505050610462565b6040518082815260200191505060405180910390f35b34801561028b57600080fd5b506102ce600480360360208110156102a257600080fd5b81019080803573ffffffffffffffffffffffffffffffffffffffff16906020019092919050505061047f565b604051808215151515815260200191505060405180910390f35b60008060040160009054906101000a900460ff16905090565b60008060000154908060010154908060020160009054906101000a900473ffffffffffffffffffffffffffffffffffffffff16908060030154908060040160009054906101000a900460ff16905085565b600061037f61037060016003850203426104d790919063ffffffff16565b8361056590919063ffffffff16565b9050919050565b6000806103a1606442444501016104d790919063ffffffff16565b14156103b057600390506103de565b60006103ca600a42444501016104d790919063ffffffff16565b14156103d957600290506103de565b600190505b90565b60008060040160009054906101000a900460ff1615600060040160006101000a81548160ff021916908315150217905550600060040160009054906101000a900460ff16905090565b6000806000806000800154600060010154600060030154600060040160009054906101000a900460ff16935093509350935090919293565b600061047782846105ef90919063ffffffff16565b905092915050565b600081600060020160006101000a81548173ffffffffffffffffffffffffffffffffffffffff021916908373ffffffffffffffffffffffffffffffffffffffff1602179055506104cd6103e1565b5060019050919050565b6000808214151515610551576040517f08c379a00000000000000000000000000000000000000000000000000000000081526004018080602001828103825260188152602001807f536166654d6174683a206d6f64756c6f206279207a65726f000000000000000081525060200191505060405180910390fd5b818381151561055c57fe5b06905092915050565b60008082840190508381101515156105e5576040517f08c379a000000000000000000000000000000000000000000000000000000000815260040180806020018281038252601b8152602001807f536166654d6174683a206164646974696f6e206f766572666c6f77000000000081525060200191505060405180910390fd5b8091505092915050565b60008083141561060257600090506106b6565b6000828402905082848281151561061557fe5b041415156106b1576040517f08c379a00000000000000000000000000000000000000000000000000000000081526004018080602001828103825260218152602001807f536166654d6174683a206d756c7469706c69636174696f6e206f766572666c6f81526020017f770000000000000000000000000000000000000000000000000000000000000081525060400191505060405180910390fd5b809150505b9291505056fea165627a7a72305820c0c6cf74fa488ecb7bee11baf1b855f163d236d39ba4a1cb4c458815e3773c340029a165627a7a72305820c0828e1e1a31fcf4e2af991dbddeb2baa5cc8021a927dcff080a5f82ef0169d60029",
  "source": "pragma solidity ^0.5.0;\nimport './Fish.sol';\nimport './FishRod.sol';\nimport './Market.sol';\ncontract FrenzyFish is FishRod,Market{\n\n    constructor () public {\n    }\n    // address[] public Fishes;\n    function Fishing() public{\n        address newfish = address(new Fish(msg.sender,UsersRod[msg.sender].Level));\n        Fishes[msg.sender].push(newfish);\n    }\n     function ListAllFishes() public view returns(address[] memory) {\n         return Fishes[msg.sender];\n     }\n        function GetFishDetails(address fish) public view returns(uint256 _rarity,uint256 _weight,uint256 _price,bool _onOrder){\n        return Fish(fish).GetDetails();\n    }\n\n\n    // function RechargeUsingFish(address _Fish,uint256 _position) public{\n    //     require(FishOwner[_Fish] == msg.sender,\"User is not Fish owner\");\n    //     require(_position >= 0 && _position < Players[msg.sender].Towns.length,\"Invalid Array Index\");\n    //     require(Players[msg.sender].Towns[_position] == _Fish,\"Invalid Town Index\");\n    //     Fish(_Fish).DestroyFish();\n    //     FishOwner[_Fish] = address(0);\n    //     Players[msg.sender].Towns[_position] = address(0);\n    // }\n\n}",
  "sourcePath": "/home/denny/Projects/FishingFrenzy/truffle/contracts/FrenzyFish.sol",
  "compiler": {
    "name": "solc",
    "version": "0.5.0+commit.1d4f565a.Emscripten.clang"
  },
  "schemaVersion": "3.0.13",
  "updatedAt": "2019-09-10T11:14:20.778Z",
  "devdoc": {
    "methods": {}
  },
  "userdoc": {
    "methods": {}
  }
}