{
  "contractName": "Market",
  "abi": [
    {
      "constant": true,
      "inputs": [
        {
          "name": "",
          "type": "uint256"
        }
      ],
      "name": "SellOrders",
      "outputs": [
        {
          "name": "SellFish",
          "type": "address"
        },
        {
          "name": "Seller",
          "type": "address"
        },
        {
          "name": "OwnerFishPosition",
          "type": "uint256"
        },
        {
          "name": "IsFilled",
          "type": "bool"
        }
      ],
      "payable": false,
      "stateMutability": "view",
      "type": "function"
    },
    {
      "constant": true,
      "inputs": [
        {
          "name": "",
          "type": "address"
        },
        {
          "name": "",
          "type": "uint256"
        }
      ],
      "name": "Fishes",
      "outputs": [
        {
          "name": "",
          "type": "address"
        }
      ],
      "payable": false,
      "stateMutability": "view",
      "type": "function"
    },
    {
      "inputs": [],
      "payable": false,
      "stateMutability": "nonpayable",
      "type": "constructor"
    },
    {
      "constant": false,
      "inputs": [
        {
          "name": "_fish",
          "type": "address"
        },
        {
          "name": "position",
          "type": "uint256"
        }
      ],
      "name": "SellFish",
      "outputs": [
        {
          "name": "",
          "type": "bool"
        }
      ],
      "payable": false,
      "stateMutability": "nonpayable",
      "type": "function"
    },
    {
      "constant": false,
      "inputs": [
        {
          "name": "_fish",
          "type": "address"
        },
        {
          "name": "_orderPosition",
          "type": "uint256"
        }
      ],
      "name": "CancelSellFishOrder",
      "outputs": [
        {
          "name": "",
          "type": "bool"
        }
      ],
      "payable": false,
      "stateMutability": "nonpayable",
      "type": "function"
    },
    {
      "constant": false,
      "inputs": [
        {
          "name": "_fish",
          "type": "address"
        },
        {
          "name": "_orderPosition",
          "type": "uint256"
        }
      ],
      "name": "BuyFish",
      "outputs": [
        {
          "name": "",
          "type": "bool"
        }
      ],
      "payable": false,
      "stateMutability": "nonpayable",
      "type": "function"
    },
    {
      "constant": true,
      "inputs": [],
      "name": "ListMarketOrders",
      "outputs": [
        {
          "name": "",
          "type": "address[]"
        },
        {
          "name": "",
          "type": "address[]"
        },
        {
          "name": "",
          "type": "uint256[]"
        },
        {
          "name": "",
          "type": "bool[]"
        }
      ],
      "payable": false,
      "stateMutability": "view",
      "type": "function"
    }
  ],
  "bytecode": "0x608060405234801561001057600080fd5b50611754806100206000396000f3fe608060405260043610610078576000357c0100000000000000000000000000000000000000000000000000000000900463ffffffff1680630ac144901461007d578063267dbaa3146100f05780639aa0d92514610234578063a6149f09146102a7578063cb5eeae71461031a578063ce4f8d41146103da575b600080fd5b34801561008957600080fd5b506100d6600480360360408110156100a057600080fd5b81019080803573ffffffffffffffffffffffffffffffffffffffff16906020019092919080359060200190929190505050610475565b604051808215151515815260200191505060405180910390f35b3480156100fc57600080fd5b50610105610a87565b6040518080602001806020018060200180602001858103855289818151815260200191508051906020019060200280838360005b83811015610154578082015181840152602081019050610139565b50505050905001858103845288818151815260200191508051906020019060200280838360005b8381101561019657808201518184015260208101905061017b565b50505050905001858103835287818151815260200191508051906020019060200280838360005b838110156101d85780820151818401526020810190506101bd565b50505050905001858103825286818151815260200191508051906020019060200280838360005b8381101561021a5780820151818401526020810190506101ff565b505050509050019850505050505050505060405180910390f35b34801561024057600080fd5b5061028d6004803603604081101561025757600080fd5b81019080803573ffffffffffffffffffffffffffffffffffffffff16906020019092919080359060200190929190505050610d41565b604051808215151515815260200191505060405180910390f35b3480156102b357600080fd5b50610300600480360360408110156102ca57600080fd5b81019080803573ffffffffffffffffffffffffffffffffffffffff169060200190929190803590602001909291905050506111a1565b604051808215151515815260200191505060405180910390f35b34801561032657600080fd5b506103536004803603602081101561033d57600080fd5b81019080803590602001909291905050506115f8565b604051808573ffffffffffffffffffffffffffffffffffffffff1673ffffffffffffffffffffffffffffffffffffffff1681526020018473ffffffffffffffffffffffffffffffffffffffff1673ffffffffffffffffffffffffffffffffffffffff1681526020018381526020018215151515815260200194505050505060405180910390f35b3480156103e657600080fd5b50610433600480360360408110156103fd57600080fd5b81019080803573ffffffffffffffffffffffffffffffffffffffff16906020019092919080359060200190929190505050611684565b604051808273ffffffffffffffffffffffffffffffffffffffff1673ffffffffffffffffffffffffffffffffffffffff16815260200191505060405180910390f35b60008273ffffffffffffffffffffffffffffffffffffffff1660008381548110151561049d57fe5b906000526020600020906004020160000160009054906101000a900473ffffffffffffffffffffffffffffffffffffffff1673ffffffffffffffffffffffffffffffffffffffff161480156105925750600115158373ffffffffffffffffffffffffffffffffffffffff166313c23f416040518163ffffffff167c010000000000000000000000000000000000000000000000000000000002815260040160206040518083038186803b15801561055357600080fd5b505afa158015610567573d6000803e3d6000fd5b505050506040513d602081101561057d57600080fd5b81019080805190602001909291905050501515145b1515610606576040517f08c379a00000000000000000000000000000000000000000000000000000000081526004018080602001828103825260108152602001807f4e6f7420696e204f726465724c6973740000000000000000000000000000000081525060200191505060405180910390fd5b3373ffffffffffffffffffffffffffffffffffffffff1660008381548110151561062c57fe5b906000526020600020906004020160010160009054906101000a900473ffffffffffffffffffffffffffffffffffffffff1673ffffffffffffffffffffffffffffffffffffffff16141515156106ea576040517f08c379a000000000000000000000000000000000000000000000000000000000815260040180806020018281038252600f8152602001807f4f776e65722043616e277420427579000000000000000000000000000000000081525060200191505060405180910390fd5b600015156000838154811015156106fd57fe5b906000526020600020906004020160030160009054906101000a900460ff161515141515610793576040517f08c379a00000000000000000000000000000000000000000000000000000000081526004018080602001828103825260148152602001807f4f7264657220416c72656164792046696c6c656400000000000000000000000081525060200191505060405180910390fd5b8273ffffffffffffffffffffffffffffffffffffffff1663f853f657336040518263ffffffff167c0100000000000000000000000000000000000000000000000000000000028152600401808273ffffffffffffffffffffffffffffffffffffffff1673ffffffffffffffffffffffffffffffffffffffff168152602001915050602060405180830381600087803b15801561082e57600080fd5b505af1158015610842573d6000803e3d6000fd5b505050506040513d602081101561085857600080fd5b810190808051906020019092919050505015610a7c57600160003373ffffffffffffffffffffffffffffffffffffffff1673ffffffffffffffffffffffffffffffffffffffff1681526020019081526020016000208390806001815401808255809150509060018203906000526020600020016000909192909190916101000a81548173ffffffffffffffffffffffffffffffffffffffff021916908373ffffffffffffffffffffffffffffffffffffffff1602179055505060016000808481548110151561092357fe5b906000526020600020906004020160010160009054906101000a900473ffffffffffffffffffffffffffffffffffffffff1673ffffffffffffffffffffffffffffffffffffffff1673ffffffffffffffffffffffffffffffffffffffff16815260200190815260200160002060008381548110151561099e57fe5b9060005260206000209060040201600201548154811015156109bc57fe5b9060005260206000200160006101000a81549073ffffffffffffffffffffffffffffffffffffffff02191690556000828154811015156109f857fe5b9060005260206000209060040201600080820160006101000a81549073ffffffffffffffffffffffffffffffffffffffff02191690556001820160006101000a81549073ffffffffffffffffffffffffffffffffffffffff021916905560028201600090556003820160006101000a81549060ff0219169055505060019050610a81565b600090505b92915050565b606080606080600080805490509050606081604051908082528060200260200182016040528015610ac75781602001602082028038833980820191505090505b509050606082604051908082528060200260200182016040528015610afb5781602001602082028038833980820191505090505b509050606083604051908082528060200260200182016040528015610b2f5781602001602082028038833980820191505090505b509050606084604051908082528060200260200182016040528015610b635781602001602082028038833980820191505090505b50905060008090505b600080549050811015610d2957600081815481101515610b8857fe5b906000526020600020906004020160000160009054906101000a900473ffffffffffffffffffffffffffffffffffffffff168582815181101515610bc857fe5b9060200190602002019073ffffffffffffffffffffffffffffffffffffffff16908173ffffffffffffffffffffffffffffffffffffffff1681525050600081815481101515610c1357fe5b906000526020600020906004020160010160009054906101000a900473ffffffffffffffffffffffffffffffffffffffff168482815181101515610c5357fe5b9060200190602002019073ffffffffffffffffffffffffffffffffffffffff16908173ffffffffffffffffffffffffffffffffffffffff1681525050600081815481101515610c9e57fe5b9060005260206000209060040201600201548382815181101515610cbe57fe5b9060200190602002018181525050600081815481101515610cdb57fe5b906000526020600020906004020160030160009054906101000a900460ff168282815181101515610d0857fe5b90602001906020020190151590811515815250508080600101915050610b6c565b50838383839850985098509850505050505090919293565b60008273ffffffffffffffffffffffffffffffffffffffff16600083815481101515610d6957fe5b906000526020600020906004020160000160009054906101000a900473ffffffffffffffffffffffffffffffffffffffff1673ffffffffffffffffffffffffffffffffffffffff16148015610e5e5750600115158373ffffffffffffffffffffffffffffffffffffffff166313c23f416040518163ffffffff167c010000000000000000000000000000000000000000000000000000000002815260040160206040518083038186803b158015610e1f57600080fd5b505afa158015610e33573d6000803e3d6000fd5b505050506040513d6020811015610e4957600080fd5b81019080805190602001909291905050501515145b1515610ed2576040517f08c379a00000000000000000000000000000000000000000000000000000000081526004018080602001828103825260108152602001807f4e6f7420696e204f726465724c6973740000000000000000000000000000000081525060200191505060405180910390fd5b60001515600083815481101515610ee557fe5b906000526020600020906004020160030160009054906101000a900460ff161515141515610f7b576040517f08c379a00000000000000000000000000000000000000000000000000000000081526004018080602001828103825260148152602001807f4f7264657220416c72656164792046696c6c656400000000000000000000000081525060200191505060405180910390fd5b3373ffffffffffffffffffffffffffffffffffffffff16600083815481101515610fa157fe5b906000526020600020906004020160010160009054906101000a900473ffffffffffffffffffffffffffffffffffffffff1673ffffffffffffffffffffffffffffffffffffffff1614151561105e576040517f08c379a00000000000000000000000000000000000000000000000000000000081526004018080602001828103825260168152602001807f55736572206973206e6f742046697368206f776e65720000000000000000000081525060200191505060405180910390fd5b8273ffffffffffffffffffffffffffffffffffffffff1663be889f4b6040518163ffffffff167c0100000000000000000000000000000000000000000000000000000000028152600401602060405180830381600087803b1580156110c257600080fd5b505af11580156110d6573d6000803e3d6000fd5b505050506040513d60208110156110ec57600080fd5b810190808051906020019092919050505015156111965760008281548110151561111257fe5b9060005260206000209060040201600080820160006101000a81549073ffffffffffffffffffffffffffffffffffffffff02191690556001820160006101000a81549073ffffffffffffffffffffffffffffffffffffffff021916905560028201600090556003820160006101000a81549060ff021916905550506001905061119b565b600090505b92915050565b60008273ffffffffffffffffffffffffffffffffffffffff16600160003373ffffffffffffffffffffffffffffffffffffffff1673ffffffffffffffffffffffffffffffffffffffff1681526020019081526020016000208381548110151561120657fe5b9060005260206000200160009054906101000a900473ffffffffffffffffffffffffffffffffffffffff1673ffffffffffffffffffffffffffffffffffffffff161415156112bc576040517f08c379a00000000000000000000000000000000000000000000000000000000081526004018080602001828103825260168152602001807f55736572206973206e6f742046697368206f776e65720000000000000000000081525060200191505060405180910390fd5b600015158373ffffffffffffffffffffffffffffffffffffffff166313c23f416040518163ffffffff167c010000000000000000000000000000000000000000000000000000000002815260040160206040518083038186803b15801561132257600080fd5b505afa158015611336573d6000803e3d6000fd5b505050506040513d602081101561134c57600080fd5b810190808051906020019092919050505015151415156113d4576040517f08c379a00000000000000000000000000000000000000000000000000000000081526004018080602001828103825260108152602001807f416c726561647920696e204f726465720000000000000000000000000000000081525060200191505060405180910390fd5b6113dc6116d1565b83816000019073ffffffffffffffffffffffffffffffffffffffff16908173ffffffffffffffffffffffffffffffffffffffff168152505033816020019073ffffffffffffffffffffffffffffffffffffffff16908173ffffffffffffffffffffffffffffffffffffffff16815250508281604001818152505060008160600190151590811515815250506000819080600181540180825580915050906001820390600052602060002090600402016000909192909190915060008201518160000160006101000a81548173ffffffffffffffffffffffffffffffffffffffff021916908373ffffffffffffffffffffffffffffffffffffffff16021790555060208201518160010160006101000a81548173ffffffffffffffffffffffffffffffffffffffff021916908373ffffffffffffffffffffffffffffffffffffffff1602179055506040820151816002015560608201518160030160006101000a81548160ff0219169083151502179055505050508373ffffffffffffffffffffffffffffffffffffffff1663be889f4b6040518163ffffffff167c0100000000000000000000000000000000000000000000000000000000028152600401602060405180830381600087803b1580156115b457600080fd5b505af11580156115c8573d6000803e3d6000fd5b505050506040513d60208110156115de57600080fd5b810190808051906020019092919050505091505092915050565b60008181548110151561160757fe5b90600052602060002090600402016000915090508060000160009054906101000a900473ffffffffffffffffffffffffffffffffffffffff16908060010160009054906101000a900473ffffffffffffffffffffffffffffffffffffffff16908060020154908060030160009054906101000a900460ff16905084565b60016020528160005260406000208181548110151561169f57fe5b906000526020600020016000915091509054906101000a900473ffffffffffffffffffffffffffffffffffffffff1681565b608060405190810160405280600073ffffffffffffffffffffffffffffffffffffffff168152602001600073ffffffffffffffffffffffffffffffffffffffff16815260200160008152602001600015158152509056fea165627a7a72305820c324caf3181ce77fe1106fb0bdd14f4347c6c3d6f966710eb39c910be9e839cc0029",
  "source": "pragma solidity ^0.5.0;\nimport './Fish.sol';\nimport './FishRod.sol';\nimport './SafeMath.sol';\n// import './AddressArrayUtil.sol';\ncontract Market {\n    using SafeMath for uint256;\n    // using AddressArrayUtil for address;\n    struct MarketOrders{\n        address SellFish;\n        address payable Seller;\n        uint256 OwnerFishPosition;\n        // address Buyer;\n        bool IsFilled;\n    }\n    MarketOrders[] public SellOrders;\n    mapping (address=>address[]) public Fishes;\n    // mapping(address => address) public FishOwner;\n\n    constructor () public {\n    }\n\n    function SellFish(address _fish,uint256 position) public returns (bool) {\n        require(Fishes[msg.sender][position] == _fish,\"User is not Fish owner\");\n        require(Fish(_fish).GetOrderStatus() == false,\"Already in Order\");\n        MarketOrders memory Order;\n        Order.SellFish = _fish;\n        Order.Seller = msg.sender;\n        Order.OwnerFishPosition = position;\n        Order.IsFilled = false;\n        SellOrders.push(Order);\n        return Fish(_fish).ChangeOrderStatus();\n    }\n    function CancelSellFishOrder(address  _fish,uint256 _orderPosition) public returns (bool) {\n        require(SellOrders[_orderPosition].SellFish==_fish && Fish(_fish).GetOrderStatus() == true,\"Not in OrderList\");\n        require(SellOrders[_orderPosition].IsFilled == false,\"Order Already Filled\");\n        require(SellOrders[_orderPosition].Seller == msg.sender,\"User is not Fish owner\");\n        if (!Fish(_fish).ChangeOrderStatus()) {\n            delete SellOrders[_orderPosition];\n            return true;\n        } else return false;\n    }\n    function BuyFish (address  _fish,uint256 _orderPosition) public returns(bool) {\n        require(SellOrders[_orderPosition].SellFish==_fish && Fish(_fish).GetOrderStatus() == true,\"Not in OrderList\");\n        require(SellOrders[_orderPosition].Seller != msg.sender,\"Owner Can't Buy\");\n        require(SellOrders[_orderPosition].IsFilled == false,\"Order Already Filled\");\n        if (Fish(_fish).ChangeOwnerShip(msg.sender)) {\n            Fishes[msg.sender].push(_fish);\n            delete Fishes[SellOrders[_orderPosition].Seller][SellOrders[_orderPosition].OwnerFishPosition];\n            delete SellOrders[_orderPosition];\n            return true;\n        } else {\n            return false;\n        }\n    }\n    function ListMarketOrders() public view returns(address[] memory ,address[] memory,uint256[] memory,bool[] memory) {\n        uint256 length = SellOrders.length;\n        address[] memory _SellFish = new address[](length);\n        address[] memory _Seller = new address[](length);\n        uint256[] memory _OwnerFishPosition = new uint256[](length);\n        bool[] memory _IsFilled = new bool[](length);\n        for(uint256 i = 0;i < SellOrders.length; i++){\n        _SellFish[i] = SellOrders[i].SellFish;\n        _Seller[i] = SellOrders[i].Seller;\n        _OwnerFishPosition[i] = SellOrders[i].OwnerFishPosition;\n        _IsFilled[i] = SellOrders[i].IsFilled;\n        }\n        return (_SellFish,_Seller,_OwnerFishPosition,_IsFilled);\n    }\n\n}",
  "sourcePath": "/home/denny/Projects/FishingFrenzy/truffle/contracts/Market.sol",
  "compiler": {
    "name": "solc",
    "version": "0.5.0+commit.1d4f565a.Emscripten.clang"
  },
  "schemaVersion": "3.0.13",
  "updatedAt": "2019-09-06T14:47:45.856Z",
  "devdoc": {
    "methods": {}
  },
  "userdoc": {
    "methods": {}
  }
}