{
  "contractName": "FishRod",
  "abi": [
    {
      "constant": true,
      "inputs": [
        {
          "name": "",
          "type": "address"
        }
      ],
      "name": "UsersRod",
      "outputs": [
        {
          "name": "Level",
          "type": "uint256"
        },
        {
          "name": "Power",
          "type": "uint256"
        },
        {
          "name": "CurrentPrice",
          "type": "uint256"
        },
        {
          "name": "NextPrice",
          "type": "uint256"
        }
      ],
      "payable": false,
      "stateMutability": "view",
      "type": "function"
    },
    {
      "constant": false,
      "inputs": [],
      "name": "FirstUserInitialRod",
      "outputs": [],
      "payable": false,
      "stateMutability": "nonpayable",
      "type": "function"
    },
    {
      "constant": false,
      "inputs": [],
      "name": "UpgradeFishRod",
      "outputs": [],
      "payable": false,
      "stateMutability": "nonpayable",
      "type": "function"
    }
  ],
  "bytecode": "0x608060405234801561001057600080fd5b5061063f806100206000396000f3fe608060405260043610610057576000357c0100000000000000000000000000000000000000000000000000000000900463ffffffff16806392a8a7891461005c578063a089dcde14610073578063a5e12aef146100ed575b600080fd5b34801561006857600080fd5b50610071610104565b005b34801561007f57600080fd5b506100c26004803603602081101561009657600080fd5b81019080803573ffffffffffffffffffffffffffffffffffffffff1690602001909291905050506103ef565b6040518085815260200184815260200183815260200182815260200194505050505060405180910390f35b3480156100f957600080fd5b5061010261041f565b005b60008060003373ffffffffffffffffffffffffffffffffffffffff1673ffffffffffffffffffffffffffffffffffffffff168152602001908152602001600020600001541415151561015257fe5b60008060003373ffffffffffffffffffffffffffffffffffffffff1673ffffffffffffffffffffffffffffffffffffffff1681526020019081526020016000206003015490506101ed60016000803373ffffffffffffffffffffffffffffffffffffffff1673ffffffffffffffffffffffffffffffffffffffff1681526020019081526020016000206000015461058990919063ffffffff16565b6000803373ffffffffffffffffffffffffffffffffffffffff1673ffffffffffffffffffffffffffffffffffffffff1681526020019081526020016000206000018190555061028760036000803373ffffffffffffffffffffffffffffffffffffffff1673ffffffffffffffffffffffffffffffffffffffff1681526020019081526020016000206001015461058990919063ffffffff16565b6000803373ffffffffffffffffffffffffffffffffffffffff1673ffffffffffffffffffffffffffffffffffffffff168152602001908152602001600020600101819055506103616000803373ffffffffffffffffffffffffffffffffffffffff1673ffffffffffffffffffffffffffffffffffffffff168152602001908152602001600020600201546000803373ffffffffffffffffffffffffffffffffffffffff1673ffffffffffffffffffffffffffffffffffffffff1681526020019081526020016000206003015461058990919063ffffffff16565b6000803373ffffffffffffffffffffffffffffffffffffffff1673ffffffffffffffffffffffffffffffffffffffff16815260200190815260200160002060030181905550806000803373ffffffffffffffffffffffffffffffffffffffff1673ffffffffffffffffffffffffffffffffffffffff1681526020019081526020016000206002018190555050565b60006020528060005260406000206000915090508060000154908060010154908060020154908060030154905084565b60008060003373ffffffffffffffffffffffffffffffffffffffff1673ffffffffffffffffffffffffffffffffffffffff1681526020019081526020016000206000015414156105875760016000803373ffffffffffffffffffffffffffffffffffffffff1673ffffffffffffffffffffffffffffffffffffffff1681526020019081526020016000206000018190555060036000803373ffffffffffffffffffffffffffffffffffffffff1673ffffffffffffffffffffffffffffffffffffffff1681526020019081526020016000206001018190555060ff6000803373ffffffffffffffffffffffffffffffffffffffff1673ffffffffffffffffffffffffffffffffffffffff168152602001908152602001600020600201819055506101816000803373ffffffffffffffffffffffffffffffffffffffff1673ffffffffffffffffffffffffffffffffffffffff168152602001908152602001600020600301819055505b565b6000808284019050838110151515610609576040517f08c379a000000000000000000000000000000000000000000000000000000000815260040180806020018281038252601b8152602001807f536166654d6174683a206164646974696f6e206f766572666c6f77000000000081525060200191505060405180910390fd5b809150509291505056fea165627a7a7230582040c1f6bc00f814e3839b9a13adab7bd18bdfba0c6ab263800b69e3770b2bc0450029",
  "source": "pragma solidity ^0.5.0;\n\n\nimport './SafeMath.sol';\n// import './SafeMath.sol';\ncontract FishRod {\n    using SafeMath for uint256;\n    struct  Rod{\n        uint256 Level;\n        uint256 Power;\n        uint256 CurrentPrice;\n        uint256 NextPrice;\n    }\nmapping (address=>Rod) public UsersRod;\n\nfunction FirstUserInitialRod() public{\n    if(UsersRod[msg.sender].Level == 0){\n        UsersRod[msg.sender].Level = 1;\n        UsersRod[msg.sender].Power = 3;\n        UsersRod[msg.sender].CurrentPrice = 255;\n        UsersRod[msg.sender].NextPrice = 385;\n}}\n    function UpgradeFishRod() public{\n        assert(UsersRod[msg.sender].Level!=0);\n        uint256 Price = UsersRod[msg.sender].NextPrice;\n        UsersRod[msg.sender].Level = UsersRod[msg.sender].Level.add(1);\n        UsersRod[msg.sender].Power = UsersRod[msg.sender].Power.add(3);\n        UsersRod[msg.sender].NextPrice = UsersRod[msg.sender].NextPrice.add(UsersRod[msg.sender].CurrentPrice);\n        UsersRod[msg.sender].CurrentPrice = Price;\n    }\n}",
  "sourcePath": "/home/denny/Desktop/CED/Project/FishingFrenzy/contracts/FishRod.sol",
  "compiler": {
    "name": "solc",
    "version": "0.5.0+commit.1d4f565a.Emscripten.clang"
  },
  "schemaVersion": "3.0.11",
  "updatedAt": "2019-08-12T19:16:18.141Z",
  "devdoc": {
    "methods": {}
  },
  "userdoc": {
    "methods": {}
  }
}