{
  "contractName": "Fish",
  "abi": [
    {
      "constant": true,
      "inputs": [],
      "name": "ThisFish",
      "outputs": [
        {
          "name": "Rarity",
          "type": "uint256"
        },
        {
          "name": "Weight",
          "type": "uint256"
        },
        {
          "name": "Owner",
          "type": "address"
        },
        {
          "name": "Price",
          "type": "uint256"
        },
        {
          "name": "OnOrder",
          "type": "bool"
        }
      ],
      "payable": false,
      "stateMutability": "view",
      "type": "function"
    },
    {
      "inputs": [
        {
          "name": "_owner",
          "type": "address"
        },
        {
          "name": "_fishRodLevel",
          "type": "uint256"
        }
      ],
      "payable": false,
      "stateMutability": "nonpayable",
      "type": "constructor"
    },
    {
      "constant": true,
      "inputs": [],
      "name": "Rarity",
      "outputs": [
        {
          "name": "",
          "type": "uint256"
        }
      ],
      "payable": false,
      "stateMutability": "view",
      "type": "function"
    },
    {
      "constant": true,
      "inputs": [
        {
          "name": "_fishRodLevel",
          "type": "uint256"
        }
      ],
      "name": "Weight",
      "outputs": [
        {
          "name": "",
          "type": "uint256"
        }
      ],
      "payable": false,
      "stateMutability": "view",
      "type": "function"
    },
    {
      "constant": true,
      "inputs": [
        {
          "name": "_weight",
          "type": "uint256"
        },
        {
          "name": "_rarity",
          "type": "uint256"
        }
      ],
      "name": "Price",
      "outputs": [
        {
          "name": "",
          "type": "uint256"
        }
      ],
      "payable": false,
      "stateMutability": "pure",
      "type": "function"
    },
    {
      "constant": true,
      "inputs": [],
      "name": "GetDetails",
      "outputs": [
        {
          "name": "",
          "type": "uint256"
        },
        {
          "name": "",
          "type": "uint256"
        },
        {
          "name": "",
          "type": "uint256"
        },
        {
          "name": "",
          "type": "bool"
        }
      ],
      "payable": false,
      "stateMutability": "view",
      "type": "function"
    },
    {
      "constant": true,
      "inputs": [],
      "name": "GetOrderStatus",
      "outputs": [
        {
          "name": "",
          "type": "bool"
        }
      ],
      "payable": false,
      "stateMutability": "view",
      "type": "function"
    },
    {
      "constant": false,
      "inputs": [],
      "name": "ChangeOrderStatus",
      "outputs": [
        {
          "name": "",
          "type": "bool"
        }
      ],
      "payable": false,
      "stateMutability": "nonpayable",
      "type": "function"
    },
    {
      "constant": false,
      "inputs": [
        {
          "name": "newOwner",
          "type": "address"
        }
      ],
      "name": "ChangeOwnerShip",
      "outputs": [
        {
          "name": "",
          "type": "bool"
        }
      ],
      "payable": false,
      "stateMutability": "nonpayable",
      "type": "function"
    }
  ],
  "bytecode": "0x608060405234801561001057600080fd5b50604051604080610ae78339810180604052604081101561003057600080fd5b81019080805190602001909291908051906020019092919050505081600060020160006101000a81548173ffffffffffffffffffffffffffffffffffffffff021916908373ffffffffffffffffffffffffffffffffffffffff1602179055506100a661011e640100000000026401000000009004565b60008001819055506100c681610193640100000000026401000000009004565b6000600101819055506100f160006001015460008001546101e1640100000000026401000000009004565b60006003018190555060008060040160006101000a81548160ff02191690831515021790555050506103f0565b6000806101466064424445010161020b640100000000026104d7179091906401000000009004565b14156101555760039050610190565b600061017c600a424445010161020b640100000000026104d7179091906401000000009004565b141561018b5760029050610190565b600190505b90565b60006101da6101be600160038502034261020b640100000000026104d7179091906401000000009004565b8361029964010000000002610565179091906401000000009004565b9050919050565b60006102038284610323640100000000026105ef179091906401000000009004565b905092915050565b6000808214151515610285576040517f08c379a00000000000000000000000000000000000000000000000000000000081526004018080602001828103825260188152602001807f536166654d6174683a206d6f64756c6f206279207a65726f000000000000000081525060200191505060405180910390fd5b818381151561029057fe5b06905092915050565b6000808284019050838110151515610319576040517f08c379a000000000000000000000000000000000000000000000000000000000815260040180806020018281038252601b8152602001807f536166654d6174683a206164646974696f6e206f766572666c6f77000000000081525060200191505060405180910390fd5b8091505092915050565b60008083141561033657600090506103ea565b6000828402905082848281151561034957fe5b041415156103e5576040517f08c379a00000000000000000000000000000000000000000000000000000000081526004018080602001828103825260218152602001807f536166654d6174683a206d756c7469706c69636174696f6e206f766572666c6f81526020017f770000000000000000000000000000000000000000000000000000000000000081525060400191505060405180910390fd5b809150505b92915050565b6106e8806103ff6000396000f3fe60806040526004361061008e576000357c0100000000000000000000000000000000000000000000000000000000900463ffffffff16806313c23f411461009357806344c57bc6146100c25780636ff8ec3614610139578063b4f6f50914610188578063be889f4b146101b3578063cc2e8cca146101e2578063d1353c6814610226578063f853f6571461027f575b600080fd5b34801561009f57600080fd5b506100a86102e8565b604051808215151515815260200191505060405180910390f35b3480156100ce57600080fd5b506100d7610301565b604051808681526020018581526020018473ffffffffffffffffffffffffffffffffffffffff1673ffffffffffffffffffffffffffffffffffffffff168152602001838152602001821515151581526020019550505050505060405180910390f35b34801561014557600080fd5b506101726004803603602081101561015c57600080fd5b8101908080359060200190929190505050610352565b6040518082815260200191505060405180910390f35b34801561019457600080fd5b5061019d610386565b6040518082815260200191505060405180910390f35b3480156101bf57600080fd5b506101c86103e1565b604051808215151515815260200191505060405180910390f35b3480156101ee57600080fd5b506101f761042a565b604051808581526020018481526020018381526020018215151515815260200194505050505060405180910390f35b34801561023257600080fd5b506102696004803603604081101561024957600080fd5b810190808035906020019092919080359060200190929190505050610462565b6040518082815260200191505060405180910390f35b34801561028b57600080fd5b506102ce600480360360208110156102a257600080fd5b81019080803573ffffffffffffffffffffffffffffffffffffffff16906020019092919050505061047f565b604051808215151515815260200191505060405180910390f35b60008060040160009054906101000a900460ff16905090565b60008060000154908060010154908060020160009054906101000a900473ffffffffffffffffffffffffffffffffffffffff16908060030154908060040160009054906101000a900460ff16905085565b600061037f61037060016003850203426104d790919063ffffffff16565b8361056590919063ffffffff16565b9050919050565b6000806103a1606442444501016104d790919063ffffffff16565b14156103b057600390506103de565b60006103ca600a42444501016104d790919063ffffffff16565b14156103d957600290506103de565b600190505b90565b60008060040160009054906101000a900460ff1615600060040160006101000a81548160ff021916908315150217905550600060040160009054906101000a900460ff16905090565b6000806000806000800154600060010154600060030154600060040160009054906101000a900460ff16935093509350935090919293565b600061047782846105ef90919063ffffffff16565b905092915050565b600081600060020160006101000a81548173ffffffffffffffffffffffffffffffffffffffff021916908373ffffffffffffffffffffffffffffffffffffffff1602179055506104cd6103e1565b5060019050919050565b6000808214151515610551576040517f08c379a00000000000000000000000000000000000000000000000000000000081526004018080602001828103825260188152602001807f536166654d6174683a206d6f64756c6f206279207a65726f000000000000000081525060200191505060405180910390fd5b818381151561055c57fe5b06905092915050565b60008082840190508381101515156105e5576040517f08c379a000000000000000000000000000000000000000000000000000000000815260040180806020018281038252601b8152602001807f536166654d6174683a206164646974696f6e206f766572666c6f77000000000081525060200191505060405180910390fd5b8091505092915050565b60008083141561060257600090506106b6565b6000828402905082848281151561061557fe5b041415156106b1576040517f08c379a00000000000000000000000000000000000000000000000000000000081526004018080602001828103825260218152602001807f536166654d6174683a206d756c7469706c69636174696f6e206f766572666c6f81526020017f770000000000000000000000000000000000000000000000000000000000000081525060400191505060405180910390fd5b809150505b9291505056fea165627a7a72305820c0c6cf74fa488ecb7bee11baf1b855f163d236d39ba4a1cb4c458815e3773c340029",
  "source": "pragma solidity ^0.5.0;\n\nimport './SafeMath.sol';\n\ncontract Fish  {\n    using SafeMath for uint256;\n\n    struct FishModel  {\n        uint256 Rarity;\n        uint256 Weight;\n        address Owner;\n        uint256 Price;\n        // uint256 Position;\n        bool OnOrder;\n    }\n    FishModel public ThisFish;\n    // mapping (address=>FishModel) ThisFish;\n    constructor(address _owner,uint256 _fishRodLevel) public   {\n        ThisFish.Owner = _owner;\n        ThisFish.Rarity = Rarity();\n        ThisFish.Weight = Weight(_fishRodLevel);\n        ThisFish.Price = Price(ThisFish.Weight,ThisFish.Rarity);\n        // ThisFish.Position = 0;\n        ThisFish.OnOrder = false;\n    }\n\n    function Rarity() public view returns(uint256)  {\n        if ((block.gaslimit+block.difficulty+now).mod(100)==0){\n            return 3;\n        }\n        if ((block.gaslimit+block.difficulty+now).mod(10)==0){\n            return 2;\n        } else{\n            return 1;\n        }\n    }\n    function Weight(uint256 _fishRodLevel) public view returns(uint256)  {\n        return _fishRodLevel.add(now.mod((_fishRodLevel*3)-1));\n    }\n    function Price( uint256 _weight, uint256 _rarity) public pure returns(uint256) {\n        return _weight.mul(_rarity);\n    }\n    function GetDetails() public view returns(uint256,uint256,uint256,bool){\n        return(ThisFish.Rarity,ThisFish.Weight,ThisFish.Price,ThisFish.OnOrder);\n    }\n    function GetOrderStatus() public view returns(bool){\n        return(ThisFish.OnOrder);\n    }\n    function ChangeOrderStatus() public returns(bool){\n        ThisFish.OnOrder=!ThisFish.OnOrder;\n        return(ThisFish.OnOrder);\n    }\n    function ChangeOwnerShip(address newOwner) external returns(bool){\n        ThisFish.Owner = newOwner;\n        ChangeOrderStatus();\n        return true;\n    }\n\n    }",
  "sourcePath": "/home/denny/Projects/FishingFrenzy/truffle/contracts/Fish.sol",
  "compiler": {
    "name": "solc",
    "version": "0.5.0+commit.1d4f565a.Emscripten.clang"
  },
  "schemaVersion": "3.0.13",
  "updatedAt": "2019-09-06T14:47:45.742Z",
  "devdoc": {
    "methods": {}
  },
  "userdoc": {
    "methods": {}
  }
}