{
  "contractName": "FishRod",
  "abi": [
    {
      "constant": true,
      "inputs": [
        {
          "name": "",
          "type": "address"
        }
      ],
      "name": "UsersRod",
      "outputs": [
        {
          "name": "Level",
          "type": "uint256"
        },
        {
          "name": "Power",
          "type": "uint256"
        },
        {
          "name": "CurrentPrice",
          "type": "uint256"
        },
        {
          "name": "NextPrice",
          "type": "uint256"
        }
      ],
      "payable": false,
      "stateMutability": "view",
      "type": "function"
    },
    {
      "constant": false,
      "inputs": [],
      "name": "FirstUserInitialRod",
      "outputs": [
        {
          "name": "",
          "type": "bool"
        }
      ],
      "payable": false,
      "stateMutability": "nonpayable",
      "type": "function"
    },
    {
      "constant": false,
      "inputs": [],
      "name": "UpgradeFishRod",
      "outputs": [],
      "payable": false,
      "stateMutability": "nonpayable",
      "type": "function"
    },
    {
      "constant": true,
      "inputs": [],
      "name": "GetRodDetails",
      "outputs": [
        {
          "name": "_level",
          "type": "uint256"
        },
        {
          "name": "_power",
          "type": "uint256"
        },
        {
          "name": "_price",
          "type": "uint256"
        }
      ],
      "payable": false,
      "stateMutability": "view",
      "type": "function"
    }
  ],
  "bytecode": "0x608060405234801561001057600080fd5b50610780806100206000396000f3fe608060405260043610610062576000357c0100000000000000000000000000000000000000000000000000000000900463ffffffff1680630b5d5b541461006757806392a8a789146100a0578063a089dcde146100b7578063a5e12aef14610131575b600080fd5b34801561007357600080fd5b5061007c610160565b60405180848152602001838152602001828152602001935050505060405180910390f35b3480156100ac57600080fd5b506100b5610236565b005b3480156100c357600080fd5b50610106600480360360208110156100da57600080fd5b81019080803573ffffffffffffffffffffffffffffffffffffffff169060200190929190505050610521565b6040518085815260200184815260200183815260200182815260200194505050505060405180910390f35b34801561013d57600080fd5b50610146610551565b604051808215151515815260200191505060405180910390f35b60008060008060003373ffffffffffffffffffffffffffffffffffffffff1673ffffffffffffffffffffffffffffffffffffffff168152602001908152602001600020600001546000803373ffffffffffffffffffffffffffffffffffffffff1673ffffffffffffffffffffffffffffffffffffffff168152602001908152602001600020600101546000803373ffffffffffffffffffffffffffffffffffffffff1673ffffffffffffffffffffffffffffffffffffffff16815260200190815260200160002060030154925092509250909192565b60008060003373ffffffffffffffffffffffffffffffffffffffff1673ffffffffffffffffffffffffffffffffffffffff168152602001908152602001600020600001541415151561028457fe5b60008060003373ffffffffffffffffffffffffffffffffffffffff1673ffffffffffffffffffffffffffffffffffffffff16815260200190815260200160002060030154905061031f60016000803373ffffffffffffffffffffffffffffffffffffffff1673ffffffffffffffffffffffffffffffffffffffff168152602001908152602001600020600001546106ca90919063ffffffff16565b6000803373ffffffffffffffffffffffffffffffffffffffff1673ffffffffffffffffffffffffffffffffffffffff168152602001908152602001600020600001819055506103b960026000803373ffffffffffffffffffffffffffffffffffffffff1673ffffffffffffffffffffffffffffffffffffffff168152602001908152602001600020600101546106ca90919063ffffffff16565b6000803373ffffffffffffffffffffffffffffffffffffffff1673ffffffffffffffffffffffffffffffffffffffff168152602001908152602001600020600101819055506104936000803373ffffffffffffffffffffffffffffffffffffffff1673ffffffffffffffffffffffffffffffffffffffff168152602001908152602001600020600201546000803373ffffffffffffffffffffffffffffffffffffffff1673ffffffffffffffffffffffffffffffffffffffff168152602001908152602001600020600301546106ca90919063ffffffff16565b6000803373ffffffffffffffffffffffffffffffffffffffff1673ffffffffffffffffffffffffffffffffffffffff16815260200190815260200160002060030181905550806000803373ffffffffffffffffffffffffffffffffffffffff1673ffffffffffffffffffffffffffffffffffffffff1681526020019081526020016000206002018190555050565b60006020528060005260406000206000915090508060000154908060010154908060020154908060030154905084565b6000806000803373ffffffffffffffffffffffffffffffffffffffff1673ffffffffffffffffffffffffffffffffffffffff1681526020019081526020016000206000015414156106c25760016000803373ffffffffffffffffffffffffffffffffffffffff1673ffffffffffffffffffffffffffffffffffffffff1681526020019081526020016000206000018190555060036000803373ffffffffffffffffffffffffffffffffffffffff1673ffffffffffffffffffffffffffffffffffffffff1681526020019081526020016000206001018190555060ff6000803373ffffffffffffffffffffffffffffffffffffffff1673ffffffffffffffffffffffffffffffffffffffff168152602001908152602001600020600201819055506101816000803373ffffffffffffffffffffffffffffffffffffffff1673ffffffffffffffffffffffffffffffffffffffff16815260200190815260200160002060030181905550600190506106c7565b600090505b90565b600080828401905083811015151561074a576040517f08c379a000000000000000000000000000000000000000000000000000000000815260040180806020018281038252601b8152602001807f536166654d6174683a206164646974696f6e206f766572666c6f77000000000081525060200191505060405180910390fd5b809150509291505056fea165627a7a723058208d8f78d84712ea5d57836ad66aaaac54120728d1c796e30e7b63f32960eeac3d0029",
  "source": "pragma solidity ^0.5.0;\n\n\nimport './SafeMath.sol';\n// import './SafeMath.sol';\ncontract FishRod {\n    using SafeMath for uint256;\n    struct  Rod{\n        uint256 Level;\n        uint256 Power;\n        uint256 CurrentPrice;\n        uint256 NextPrice;\n    }\n    mapping (address=>Rod) public UsersRod;\n\n    function FirstUserInitialRod() public returns(bool){\n        if(UsersRod[msg.sender].Level == 0){\n        UsersRod[msg.sender].Level = 1;\n        UsersRod[msg.sender].Power = 3;\n        UsersRod[msg.sender].CurrentPrice = 255;\n        UsersRod[msg.sender].NextPrice = 385;\n        return true;\n    }\n    return false;\n    }\n    function UpgradeFishRod() public{\n        assert(UsersRod[msg.sender].Level!=0);\n        uint256 Price = UsersRod[msg.sender].NextPrice;\n        UsersRod[msg.sender].Level = UsersRod[msg.sender].Level.add(1);\n        UsersRod[msg.sender].Power = UsersRod[msg.sender].Power.add(2);\n        UsersRod[msg.sender].NextPrice = UsersRod[msg.sender].NextPrice.add(UsersRod[msg.sender].CurrentPrice);\n        UsersRod[msg.sender].CurrentPrice = Price;\n    }\n    function GetRodDetails() public view returns(uint256 _level,uint256 _power,uint256 _price){\n        return(UsersRod[msg.sender].Level,UsersRod[msg.sender].Power,UsersRod[msg.sender].NextPrice);\n    }\n}",
  "sourcePath": "/media/denny/87a0f30e-8ebe-4956-9700-01398012e506/home/denny/Desktop/CED/Project/FishingFrenzy/contracts/FishRod.sol",
  "compiler": {
    "name": "solc",
    "version": "0.5.0+commit.1d4f565a.Emscripten.clang"
  },
  "schemaVersion": "3.0.13",
  "updatedAt": "2019-08-23T16:55:18.704Z",
  "devdoc": {
    "methods": {}
  },
  "userdoc": {
    "methods": {}
  }
}