{
  "contractName": "FrenzyFish",
  "abi": [
    {
      "constant": false,
      "inputs": [],
      "name": "UpgradeFishRod",
      "outputs": [],
      "payable": false,
      "stateMutability": "nonpayable",
      "type": "function"
    },
    {
      "constant": true,
      "inputs": [
        {
          "name": "",
          "type": "address"
        }
      ],
      "name": "UsersRod",
      "outputs": [
        {
          "name": "Level",
          "type": "uint256"
        },
        {
          "name": "Power",
          "type": "uint256"
        },
        {
          "name": "CurrentPrice",
          "type": "uint256"
        },
        {
          "name": "NextPrice",
          "type": "uint256"
        }
      ],
      "payable": false,
      "stateMutability": "view",
      "type": "function"
    },
    {
      "constant": false,
      "inputs": [],
      "name": "FirstUserInitialRod",
      "outputs": [],
      "payable": false,
      "stateMutability": "nonpayable",
      "type": "function"
    },
    {
      "constant": true,
      "inputs": [
        {
          "name": "",
          "type": "uint256"
        }
      ],
      "name": "Fishes",
      "outputs": [
        {
          "name": "",
          "type": "address"
        }
      ],
      "payable": false,
      "stateMutability": "view",
      "type": "function"
    },
    {
      "inputs": [],
      "payable": false,
      "stateMutability": "nonpayable",
      "type": "constructor"
    },
    {
      "constant": false,
      "inputs": [],
      "name": "Fishing",
      "outputs": [],
      "payable": false,
      "stateMutability": "nonpayable",
      "type": "function"
    },
    {
      "constant": true,
      "inputs": [],
      "name": "ListAllFishes",
      "outputs": [
        {
          "name": "",
          "type": "address[]"
        }
      ],
      "payable": false,
      "stateMutability": "view",
      "type": "function"
    },
    {
      "constant": true,
      "inputs": [
        {
          "name": "fish",
          "type": "address"
        }
      ],
      "name": "GetFishDetails",
      "outputs": [
        {
          "name": "_rarity",
          "type": "uint256"
        },
        {
          "name": "_weight",
          "type": "uint256"
        },
        {
          "name": "_price",
          "type": "uint256"
        }
      ],
      "payable": false,
      "stateMutability": "view",
      "type": "function"
    }
  ],
  "bytecode": "0x608060405234801561001057600080fd5b5061002861002d640100000000026401000000009004565b610197565b60008060003373ffffffffffffffffffffffffffffffffffffffff1673ffffffffffffffffffffffffffffffffffffffff1681526020019081526020016000206000015414156101955760016000803373ffffffffffffffffffffffffffffffffffffffff1673ffffffffffffffffffffffffffffffffffffffff1681526020019081526020016000206000018190555060036000803373ffffffffffffffffffffffffffffffffffffffff1673ffffffffffffffffffffffffffffffffffffffff1681526020019081526020016000206001018190555060ff6000803373ffffffffffffffffffffffffffffffffffffffff1673ffffffffffffffffffffffffffffffffffffffff168152602001908152602001600020600201819055506101816000803373ffffffffffffffffffffffffffffffffffffffff1673ffffffffffffffffffffffffffffffffffffffff168152602001908152602001600020600301819055505b565b611377806101a66000396000f3fe608060405260043610610083576000357c0100000000000000000000000000000000000000000000000000000000900463ffffffff16806328347b6c146100885780636765bc16146100f457806392a8a7891461010b5780639e96c3ad14610122578063a089dcde14610195578063a5e12aef1461020f578063c92f770514610226575b600080fd5b34801561009457600080fd5b5061009d6102a1565b6040518080602001828103825283818151815260200191508051906020019060200280838360005b838110156100e05780820151818401526020810190506100c5565b505050509050019250505060405180910390f35b34801561010057600080fd5b5061010961032f565b005b34801561011757600080fd5b50610120610443565b005b34801561012e57600080fd5b506101716004803603602081101561014557600080fd5b81019080803573ffffffffffffffffffffffffffffffffffffffff16906020019092919050505061072e565b60405180848152602001838152602001828152602001935050505060405180910390f35b3480156101a157600080fd5b506101e4600480360360208110156101b857600080fd5b81019080803573ffffffffffffffffffffffffffffffffffffffff1690602001909291905050506107f1565b6040518085815260200184815260200183815260200182815260200194505050505060405180910390f35b34801561021b57600080fd5b50610224610821565b005b34801561023257600080fd5b5061025f6004803603602081101561024957600080fd5b810190808035906020019092919050505061098b565b604051808273ffffffffffffffffffffffffffffffffffffffff1673ffffffffffffffffffffffffffffffffffffffff16815260200191505060405180910390f35b6060600180548060200260200160405190810160405280929190818152602001828054801561032557602002820191906000526020600020905b8160009054906101000a900473ffffffffffffffffffffffffffffffffffffffff1673ffffffffffffffffffffffffffffffffffffffff16815260200190600101908083116102db575b5050505050905090565b6000336000803373ffffffffffffffffffffffffffffffffffffffff1673ffffffffffffffffffffffffffffffffffffffff1681526020019081526020016000206000015461037c610a53565b808373ffffffffffffffffffffffffffffffffffffffff1673ffffffffffffffffffffffffffffffffffffffff16815260200182815260200192505050604051809103906000f0801580156103d5573d6000803e3d6000fd5b5090506001808290806001815401808255809150509060018203906000526020600020016000909192909190916101000a81548173ffffffffffffffffffffffffffffffffffffffff021916908373ffffffffffffffffffffffffffffffffffffffff160217905550505050565b60008060003373ffffffffffffffffffffffffffffffffffffffff1673ffffffffffffffffffffffffffffffffffffffff168152602001908152602001600020600001541415151561049157fe5b60008060003373ffffffffffffffffffffffffffffffffffffffff1673ffffffffffffffffffffffffffffffffffffffff16815260200190815260200160002060030154905061052c60016000803373ffffffffffffffffffffffffffffffffffffffff1673ffffffffffffffffffffffffffffffffffffffff168152602001908152602001600020600001546109c990919063ffffffff16565b6000803373ffffffffffffffffffffffffffffffffffffffff1673ffffffffffffffffffffffffffffffffffffffff168152602001908152602001600020600001819055506105c660036000803373ffffffffffffffffffffffffffffffffffffffff1673ffffffffffffffffffffffffffffffffffffffff168152602001908152602001600020600101546109c990919063ffffffff16565b6000803373ffffffffffffffffffffffffffffffffffffffff1673ffffffffffffffffffffffffffffffffffffffff168152602001908152602001600020600101819055506106a06000803373ffffffffffffffffffffffffffffffffffffffff1673ffffffffffffffffffffffffffffffffffffffff168152602001908152602001600020600201546000803373ffffffffffffffffffffffffffffffffffffffff1673ffffffffffffffffffffffffffffffffffffffff168152602001908152602001600020600301546109c990919063ffffffff16565b6000803373ffffffffffffffffffffffffffffffffffffffff1673ffffffffffffffffffffffffffffffffffffffff16815260200190815260200160002060030181905550806000803373ffffffffffffffffffffffffffffffffffffffff1673ffffffffffffffffffffffffffffffffffffffff1681526020019081526020016000206002018190555050565b60008060008373ffffffffffffffffffffffffffffffffffffffff1663cc2e8cca6040518163ffffffff167c010000000000000000000000000000000000000000000000000000000002815260040160606040518083038186803b15801561079557600080fd5b505afa1580156107a9573d6000803e3d6000fd5b505050506040513d60608110156107bf57600080fd5b810190808051906020019092919080519060200190929190805190602001909291905050509250925092509193909250565b60006020528060005260406000206000915090508060000154908060010154908060020154908060030154905084565b60008060003373ffffffffffffffffffffffffffffffffffffffff1673ffffffffffffffffffffffffffffffffffffffff1681526020019081526020016000206000015414156109895760016000803373ffffffffffffffffffffffffffffffffffffffff1673ffffffffffffffffffffffffffffffffffffffff1681526020019081526020016000206000018190555060036000803373ffffffffffffffffffffffffffffffffffffffff1673ffffffffffffffffffffffffffffffffffffffff1681526020019081526020016000206001018190555060ff6000803373ffffffffffffffffffffffffffffffffffffffff1673ffffffffffffffffffffffffffffffffffffffff168152602001908152602001600020600201819055506101816000803373ffffffffffffffffffffffffffffffffffffffff1673ffffffffffffffffffffffffffffffffffffffff168152602001908152602001600020600301819055505b565b60018181548110151561099a57fe5b906000526020600020016000915054906101000a900473ffffffffffffffffffffffffffffffffffffffff1681565b6000808284019050838110151515610a49576040517f08c379a000000000000000000000000000000000000000000000000000000000815260040180806020018281038252601b8152602001807f536166654d6174683a206164646974696f6e206f766572666c6f77000000000081525060200191505060405180910390fd5b8091505092915050565b6040516108e880610a648339019056fe608060405234801561001057600080fd5b506040516040806108e88339810180604052604081101561003057600080fd5b81019080805190602001909291908051906020019092919050505081600060020160006101000a81548173ffffffffffffffffffffffffffffffffffffffff021916908373ffffffffffffffffffffffffffffffffffffffff1602179055506100a6610101640100000000026401000000009004565b60008001819055506100c681610176640100000000026401000000009004565b6000600101819055506100f160006001015460008001546101c4640100000000026401000000009004565b60006003018190555050506103d3565b600080610129606442444501016101ee640100000000026102f5179091906401000000009004565b14156101385760039050610173565b600061015f600a42444501016101ee640100000000026102f5179091906401000000009004565b141561016e5760029050610173565b600190505b90565b60006101bd60016101a060038502426101ee640100000000026102f5179091906401000000009004565b038361027c64010000000002610383179091906401000000009004565b9050919050565b60006101e682846103066401000000000261040d179091906401000000009004565b905092915050565b6000808214151515610268576040517f08c379a00000000000000000000000000000000000000000000000000000000081526004018080602001828103825260188152602001807f536166654d6174683a206d6f64756c6f206279207a65726f000000000000000081525060200191505060405180910390fd5b818381151561027357fe5b06905092915050565b60008082840190508381101515156102fc576040517f08c379a000000000000000000000000000000000000000000000000000000000815260040180806020018281038252601b8152602001807f536166654d6174683a206164646974696f6e206f766572666c6f77000000000081525060200191505060405180910390fd5b8091505092915050565b60008083141561031957600090506103cd565b6000828402905082848281151561032c57fe5b041415156103c8576040517f08c379a00000000000000000000000000000000000000000000000000000000081526004018080602001828103825260218152602001807f536166654d6174683a206d756c7469706c69636174696f6e206f766572666c6f81526020017f770000000000000000000000000000000000000000000000000000000000000081525060400191505060405180910390fd5b809150505b92915050565b610506806103e26000396000f3fe60806040526004361061006d576000357c0100000000000000000000000000000000000000000000000000000000900463ffffffff16806344c57bc6146100725780636ff8ec36146100de578063b4f6f5091461012d578063cc2e8cca14610158578063d1353c6814610191575b600080fd5b34801561007e57600080fd5b506100876101ea565b604051808581526020018481526020018373ffffffffffffffffffffffffffffffffffffffff1673ffffffffffffffffffffffffffffffffffffffff16815260200182815260200194505050505060405180910390f35b3480156100ea57600080fd5b506101176004803603602081101561010157600080fd5b8101908080359060200190929190505050610228565b6040518082815260200191505060405180910390f35b34801561013957600080fd5b5061014261025c565b6040518082815260200191505060405180910390f35b34801561016457600080fd5b5061016d6102b7565b60405180848152602001838152602001828152602001935050505060405180910390f35b34801561019d57600080fd5b506101d4600480360360408110156101b457600080fd5b8101908080359060200190929190803590602001909291905050506102d8565b6040518082815260200191505060405180910390f35b60008060000154908060010154908060020160009054906101000a900473ffffffffffffffffffffffffffffffffffffffff16908060030154905084565b6000610255600161024560038502426102f590919063ffffffff16565b038361038390919063ffffffff16565b9050919050565b600080610277606442444501016102f590919063ffffffff16565b141561028657600390506102b4565b60006102a0600a42444501016102f590919063ffffffff16565b14156102af57600290506102b4565b600190505b90565b60008060008060000154600060010154600060030154925092509250909192565b60006102ed828461040d90919063ffffffff16565b905092915050565b600080821415151561036f576040517f08c379a00000000000000000000000000000000000000000000000000000000081526004018080602001828103825260188152602001807f536166654d6174683a206d6f64756c6f206279207a65726f000000000000000081525060200191505060405180910390fd5b818381151561037a57fe5b06905092915050565b6000808284019050838110151515610403576040517f08c379a000000000000000000000000000000000000000000000000000000000815260040180806020018281038252601b8152602001807f536166654d6174683a206164646974696f6e206f766572666c6f77000000000081525060200191505060405180910390fd5b8091505092915050565b60008083141561042057600090506104d4565b6000828402905082848281151561043357fe5b041415156104cf576040517f08c379a00000000000000000000000000000000000000000000000000000000081526004018080602001828103825260218152602001807f536166654d6174683a206d756c7469706c69636174696f6e206f766572666c6f81526020017f770000000000000000000000000000000000000000000000000000000000000081525060400191505060405180910390fd5b809150505b9291505056fea165627a7a7230582001f7aa10b743eda3a05af8e305fd892db2bcab130c27962dbf5100bfdb957de90029a165627a7a72305820042c2dd1014403d15fe3d63fbb65d585fdc2872587398f27850246ac4f58b1fd0029",
  "source": "pragma solidity ^0.5.0;\nimport './Fish.sol';\nimport './FishRod.sol';\ncontract FrenzyFish is FishRod{\n\n    constructor () public {\n        FirstUserInitialRod();\n    }\n    address[] public Fishes;\n    function Fishing() public{\n        \n        address newfish = address(new Fish(msg.sender,UsersRod[msg.sender].Level));\n        Fishes.push(newfish) - 1;\n    }\n     function ListAllFishes() public view returns(address[] memory) {\n         return Fishes;\n     }\n        function GetFishDetails(address fish) public view returns(uint256 _rarity,uint256 _weight,uint256 _price){\n        return( Fish(fish).GetDetails() );\n    }\n\n\n    // function RechargeUsingFish(address _Fish,uint256 _position) public{\n    //     require(FishOwner[_Fish] == msg.sender,\"User is not Fish owner\");\n    //     require(_position >= 0 && _position < Players[msg.sender].Towns.length,\"Invalid Array Index\");\n    //     require(Players[msg.sender].Towns[_position] == _Fish,\"Invalid Town Index\");\n    //     Fish(_Fish).DestroyFish();\n    //     FishOwner[_Fish] = address(0);\n    //     Players[msg.sender].Towns[_position] = address(0);\n    // }\n\n}",
  "sourcePath": "/home/denny/Desktop/CED/Project/FishingFrenzy/contracts/FrenzyFish.sol",
  "compiler": {
    "name": "solc",
    "version": "0.5.0+commit.1d4f565a.Emscripten.clang"
  },
  "schemaVersion": "3.0.11",
  "updatedAt": "2019-08-13T07:29:12.349Z",
  "devdoc": {
    "methods": {}
  },
  "userdoc": {
    "methods": {}
  }
}