{
  "contractName": "FrenzyFish",
  "abi": [
    {
      "constant": true,
      "inputs": [],
      "name": "GetRodDetails",
      "outputs": [
        {
          "name": "_level",
          "type": "uint256"
        },
        {
          "name": "_power",
          "type": "uint256"
        },
        {
          "name": "_price",
          "type": "uint256"
        }
      ],
      "payable": false,
      "stateMutability": "view",
      "type": "function"
    },
    {
      "constant": false,
      "inputs": [],
      "name": "UpgradeFishRod",
      "outputs": [],
      "payable": false,
      "stateMutability": "nonpayable",
      "type": "function"
    },
    {
      "constant": true,
      "inputs": [
        {
          "name": "",
          "type": "address"
        }
      ],
      "name": "UsersRod",
      "outputs": [
        {
          "name": "Level",
          "type": "uint256"
        },
        {
          "name": "Power",
          "type": "uint256"
        },
        {
          "name": "CurrentPrice",
          "type": "uint256"
        },
        {
          "name": "NextPrice",
          "type": "uint256"
        }
      ],
      "payable": false,
      "stateMutability": "view",
      "type": "function"
    },
    {
      "constant": false,
      "inputs": [],
      "name": "FirstUserInitialRod",
      "outputs": [
        {
          "name": "",
          "type": "bool"
        }
      ],
      "payable": false,
      "stateMutability": "nonpayable",
      "type": "function"
    },
    {
      "constant": true,
      "inputs": [
        {
          "name": "",
          "type": "address"
        },
        {
          "name": "",
          "type": "uint256"
        }
      ],
      "name": "Fishes",
      "outputs": [
        {
          "name": "",
          "type": "address"
        }
      ],
      "payable": false,
      "stateMutability": "view",
      "type": "function"
    },
    {
      "inputs": [],
      "payable": false,
      "stateMutability": "nonpayable",
      "type": "constructor"
    },
    {
      "constant": false,
      "inputs": [],
      "name": "Fishing",
      "outputs": [],
      "payable": false,
      "stateMutability": "nonpayable",
      "type": "function"
    },
    {
      "constant": true,
      "inputs": [],
      "name": "ListAllFishes",
      "outputs": [
        {
          "name": "",
          "type": "address[]"
        }
      ],
      "payable": false,
      "stateMutability": "view",
      "type": "function"
    },
    {
      "constant": true,
      "inputs": [
        {
          "name": "fish",
          "type": "address"
        }
      ],
      "name": "GetFishDetails",
      "outputs": [
        {
          "name": "_rarity",
          "type": "uint256"
        },
        {
          "name": "_weight",
          "type": "uint256"
        },
        {
          "name": "_price",
          "type": "uint256"
        }
      ],
      "payable": false,
      "stateMutability": "view",
      "type": "function"
    }
  ],
  "bytecode": "0x608060405234801561001057600080fd5b5061155f806100206000396000f3fe60806040526004361061008e576000357c0100000000000000000000000000000000000000000000000000000000900463ffffffff1680630b5d5b541461009357806328347b6c146100cc5780636765bc161461013857806392a8a7891461014f5780639e96c3ad14610166578063a089dcde146101d9578063a5e12aef14610253578063ce4f8d4114610282575b600080fd5b34801561009f57600080fd5b506100a861031d565b60405180848152602001838152602001828152602001935050505060405180910390f35b3480156100d857600080fd5b506100e16103f3565b6040518080602001828103825283818151815260200191508051906020019060200280838360005b83811015610124578082015181840152602081019050610109565b505050509050019250505060405180910390f35b34801561014457600080fd5b5061014d6104be565b005b34801561015b57600080fd5b5061016461060d565b005b34801561017257600080fd5b506101b56004803603602081101561018957600080fd5b81019080803573ffffffffffffffffffffffffffffffffffffffff1690602001909291905050506108f8565b60405180848152602001838152602001828152602001935050505060405180910390f35b3480156101e557600080fd5b50610228600480360360208110156101fc57600080fd5b81019080803573ffffffffffffffffffffffffffffffffffffffff1690602001909291905050506109bb565b6040518085815260200184815260200183815260200182815260200194505050505060405180910390f35b34801561025f57600080fd5b506102686109eb565b604051808215151515815260200191505060405180910390f35b34801561028e57600080fd5b506102db600480360360408110156102a557600080fd5b81019080803573ffffffffffffffffffffffffffffffffffffffff16906020019092919080359060200190929190505050610b64565b604051808273ffffffffffffffffffffffffffffffffffffffff1673ffffffffffffffffffffffffffffffffffffffff16815260200191505060405180910390f35b60008060008060003373ffffffffffffffffffffffffffffffffffffffff1673ffffffffffffffffffffffffffffffffffffffff168152602001908152602001600020600001546000803373ffffffffffffffffffffffffffffffffffffffff1673ffffffffffffffffffffffffffffffffffffffff168152602001908152602001600020600101546000803373ffffffffffffffffffffffffffffffffffffffff1673ffffffffffffffffffffffffffffffffffffffff16815260200190815260200160002060030154925092509250909192565b6060600160003373ffffffffffffffffffffffffffffffffffffffff1673ffffffffffffffffffffffffffffffffffffffff1681526020019081526020016000208054806020026020016040519081016040528092919081815260200182805480156104b457602002820191906000526020600020905b8160009054906101000a900473ffffffffffffffffffffffffffffffffffffffff1673ffffffffffffffffffffffffffffffffffffffff168152602001906001019080831161046a575b5050505050905090565b6000336000803373ffffffffffffffffffffffffffffffffffffffff1673ffffffffffffffffffffffffffffffffffffffff1681526020019081526020016000206000015461050b610c3b565b808373ffffffffffffffffffffffffffffffffffffffff1673ffffffffffffffffffffffffffffffffffffffff16815260200182815260200192505050604051809103906000f080158015610564573d6000803e3d6000fd5b509050600160003373ffffffffffffffffffffffffffffffffffffffff1673ffffffffffffffffffffffffffffffffffffffff1681526020019081526020016000208190806001815401808255809150509060018203906000526020600020016000909192909190916101000a81548173ffffffffffffffffffffffffffffffffffffffff021916908373ffffffffffffffffffffffffffffffffffffffff1602179055505050565b60008060003373ffffffffffffffffffffffffffffffffffffffff1673ffffffffffffffffffffffffffffffffffffffff168152602001908152602001600020600001541415151561065b57fe5b60008060003373ffffffffffffffffffffffffffffffffffffffff1673ffffffffffffffffffffffffffffffffffffffff1681526020019081526020016000206003015490506106f660016000803373ffffffffffffffffffffffffffffffffffffffff1673ffffffffffffffffffffffffffffffffffffffff16815260200190815260200160002060000154610bb190919063ffffffff16565b6000803373ffffffffffffffffffffffffffffffffffffffff1673ffffffffffffffffffffffffffffffffffffffff1681526020019081526020016000206000018190555061079060026000803373ffffffffffffffffffffffffffffffffffffffff1673ffffffffffffffffffffffffffffffffffffffff16815260200190815260200160002060010154610bb190919063ffffffff16565b6000803373ffffffffffffffffffffffffffffffffffffffff1673ffffffffffffffffffffffffffffffffffffffff1681526020019081526020016000206001018190555061086a6000803373ffffffffffffffffffffffffffffffffffffffff1673ffffffffffffffffffffffffffffffffffffffff168152602001908152602001600020600201546000803373ffffffffffffffffffffffffffffffffffffffff1673ffffffffffffffffffffffffffffffffffffffff16815260200190815260200160002060030154610bb190919063ffffffff16565b6000803373ffffffffffffffffffffffffffffffffffffffff1673ffffffffffffffffffffffffffffffffffffffff16815260200190815260200160002060030181905550806000803373ffffffffffffffffffffffffffffffffffffffff1673ffffffffffffffffffffffffffffffffffffffff1681526020019081526020016000206002018190555050565b60008060008373ffffffffffffffffffffffffffffffffffffffff1663cc2e8cca6040518163ffffffff167c010000000000000000000000000000000000000000000000000000000002815260040160606040518083038186803b15801561095f57600080fd5b505afa158015610973573d6000803e3d6000fd5b505050506040513d606081101561098957600080fd5b810190808051906020019092919080519060200190929190805190602001909291905050509250925092509193909250565b60006020528060005260406000206000915090508060000154908060010154908060020154908060030154905084565b6000806000803373ffffffffffffffffffffffffffffffffffffffff1673ffffffffffffffffffffffffffffffffffffffff168152602001908152602001600020600001541415610b5c5760016000803373ffffffffffffffffffffffffffffffffffffffff1673ffffffffffffffffffffffffffffffffffffffff1681526020019081526020016000206000018190555060036000803373ffffffffffffffffffffffffffffffffffffffff1673ffffffffffffffffffffffffffffffffffffffff1681526020019081526020016000206001018190555060ff6000803373ffffffffffffffffffffffffffffffffffffffff1673ffffffffffffffffffffffffffffffffffffffff168152602001908152602001600020600201819055506101816000803373ffffffffffffffffffffffffffffffffffffffff1673ffffffffffffffffffffffffffffffffffffffff1681526020019081526020016000206003018190555060019050610b61565b600090505b90565b600160205281600052604060002081815481101515610b7f57fe5b906000526020600020016000915091509054906101000a900473ffffffffffffffffffffffffffffffffffffffff1681565b6000808284019050838110151515610c31576040517f08c379a000000000000000000000000000000000000000000000000000000000815260040180806020018281038252601b8152602001807f536166654d6174683a206164646974696f6e206f766572666c6f77000000000081525060200191505060405180910390fd5b8091505092915050565b6040516108e880610c4c8339019056fe608060405234801561001057600080fd5b506040516040806108e88339810180604052604081101561003057600080fd5b81019080805190602001909291908051906020019092919050505081600060020160006101000a81548173ffffffffffffffffffffffffffffffffffffffff021916908373ffffffffffffffffffffffffffffffffffffffff1602179055506100a6610101640100000000026401000000009004565b60008001819055506100c681610176640100000000026401000000009004565b6000600101819055506100f160006001015460008001546101c4640100000000026401000000009004565b60006003018190555050506103d3565b600080610129606442444501016101ee640100000000026102f5179091906401000000009004565b14156101385760039050610173565b600061015f600a42444501016101ee640100000000026102f5179091906401000000009004565b141561016e5760029050610173565b600190505b90565b60006101bd6101a160016003850203426101ee640100000000026102f5179091906401000000009004565b8361027c64010000000002610383179091906401000000009004565b9050919050565b60006101e682846103066401000000000261040d179091906401000000009004565b905092915050565b6000808214151515610268576040517f08c379a00000000000000000000000000000000000000000000000000000000081526004018080602001828103825260188152602001807f536166654d6174683a206d6f64756c6f206279207a65726f000000000000000081525060200191505060405180910390fd5b818381151561027357fe5b06905092915050565b60008082840190508381101515156102fc576040517f08c379a000000000000000000000000000000000000000000000000000000000815260040180806020018281038252601b8152602001807f536166654d6174683a206164646974696f6e206f766572666c6f77000000000081525060200191505060405180910390fd5b8091505092915050565b60008083141561031957600090506103cd565b6000828402905082848281151561032c57fe5b041415156103c8576040517f08c379a00000000000000000000000000000000000000000000000000000000081526004018080602001828103825260218152602001807f536166654d6174683a206d756c7469706c69636174696f6e206f766572666c6f81526020017f770000000000000000000000000000000000000000000000000000000000000081525060400191505060405180910390fd5b809150505b92915050565b610506806103e26000396000f3fe60806040526004361061006d576000357c0100000000000000000000000000000000000000000000000000000000900463ffffffff16806344c57bc6146100725780636ff8ec36146100de578063b4f6f5091461012d578063cc2e8cca14610158578063d1353c6814610191575b600080fd5b34801561007e57600080fd5b506100876101ea565b604051808581526020018481526020018373ffffffffffffffffffffffffffffffffffffffff1673ffffffffffffffffffffffffffffffffffffffff16815260200182815260200194505050505060405180910390f35b3480156100ea57600080fd5b506101176004803603602081101561010157600080fd5b8101908080359060200190929190505050610228565b6040518082815260200191505060405180910390f35b34801561013957600080fd5b5061014261025c565b6040518082815260200191505060405180910390f35b34801561016457600080fd5b5061016d6102b7565b60405180848152602001838152602001828152602001935050505060405180910390f35b34801561019d57600080fd5b506101d4600480360360408110156101b457600080fd5b8101908080359060200190929190803590602001909291905050506102d8565b6040518082815260200191505060405180910390f35b60008060000154908060010154908060020160009054906101000a900473ffffffffffffffffffffffffffffffffffffffff16908060030154905084565b600061025561024660016003850203426102f590919063ffffffff16565b8361038390919063ffffffff16565b9050919050565b600080610277606442444501016102f590919063ffffffff16565b141561028657600390506102b4565b60006102a0600a42444501016102f590919063ffffffff16565b14156102af57600290506102b4565b600190505b90565b60008060008060000154600060010154600060030154925092509250909192565b60006102ed828461040d90919063ffffffff16565b905092915050565b600080821415151561036f576040517f08c379a00000000000000000000000000000000000000000000000000000000081526004018080602001828103825260188152602001807f536166654d6174683a206d6f64756c6f206279207a65726f000000000000000081525060200191505060405180910390fd5b818381151561037a57fe5b06905092915050565b6000808284019050838110151515610403576040517f08c379a000000000000000000000000000000000000000000000000000000000815260040180806020018281038252601b8152602001807f536166654d6174683a206164646974696f6e206f766572666c6f77000000000081525060200191505060405180910390fd5b8091505092915050565b60008083141561042057600090506104d4565b6000828402905082848281151561043357fe5b041415156104cf576040517f08c379a00000000000000000000000000000000000000000000000000000000081526004018080602001828103825260218152602001807f536166654d6174683a206d756c7469706c69636174696f6e206f766572666c6f81526020017f770000000000000000000000000000000000000000000000000000000000000081525060400191505060405180910390fd5b809150505b9291505056fea165627a7a72305820ba402df0227c4c0fdb7b26acfdd4e500ded7e692e16f0badee2eb476b33614150029a165627a7a7230582080168383a2a3765b8bd466d60cf9963dd66daacb7191d658d16d57eccae549370029",
  "source": "pragma solidity ^0.5.0;\nimport './Fish.sol';\nimport './FishRod.sol';\ncontract FrenzyFish is FishRod{\n\n    constructor () public {\n    }\n    // address[] public Fishes;\n    mapping (address=>address[]) public Fishes;\n    function Fishing() public{\n        address newfish = address(new Fish(msg.sender,UsersRod[msg.sender].Level));\n        Fishes[msg.sender].push(newfish);\n    }\n     function ListAllFishes() public view returns(address[] memory) {\n         return Fishes[msg.sender];\n     }\n        function GetFishDetails(address fish) public view returns(uint256 _rarity,uint256 _weight,uint256 _price){\n        return Fish(fish).GetDetails();\n    }\n\n\n    // function RechargeUsingFish(address _Fish,uint256 _position) public{\n    //     require(FishOwner[_Fish] == msg.sender,\"User is not Fish owner\");\n    //     require(_position >= 0 && _position < Players[msg.sender].Towns.length,\"Invalid Array Index\");\n    //     require(Players[msg.sender].Towns[_position] == _Fish,\"Invalid Town Index\");\n    //     Fish(_Fish).DestroyFish();\n    //     FishOwner[_Fish] = address(0);\n    //     Players[msg.sender].Towns[_position] = address(0);\n    // }\n\n}",
  "sourcePath": "/media/denny/87a0f30e-8ebe-4956-9700-01398012e506/home/denny/Desktop/CED/Project/FishingFrenzy/contracts/FrenzyFish.sol",
  "compiler": {
    "name": "solc",
    "version": "0.5.0+commit.1d4f565a.Emscripten.clang"
  },
  "schemaVersion": "3.0.13",
  "updatedAt": "2019-08-23T16:55:33.927Z",
  "devdoc": {
    "methods": {}
  },
  "userdoc": {
    "methods": {}
  }
}